:020000040000FA
:10000000400300200D03000015030000170300004B
:10001000190300001B0300001D0300000000000086
:100020000000000000000000000000001F030000AE
:10003000210300000000000023030000251200003F
:100040009D040000E50400002D050000750500007A
:10005000BD0500003103000033030000350300003C
:1000600037030000390300003B0300003D0300009C
:100070003F0300004103000043030000450300006C
:1000800047030000490300004B030000D1120000A9
:100090004F0300005103000053030000550300000C
:1000A00057030000590300005B0300005D030000DC
:1000B0005F030000610300006303000065030000AC
:1000C00067030000690300006B0300006D0300007C
:1000D0006F0300007103000073030000750300004C
:1000E0007703000079030000000000007B0300009C
:1000F0007D0300007F0300008103000083030000F4
:100100008503000087030000890300008B030000C3
:1001100000000000000000008D0300008F030000BD
:100120009103000093030000950300009703000073
:10013000990300009B0300009D0300009F03000043
:1001400000000000000000000000000000000000AF
:10015000A1030000A3030000A5030000A703000003
:10016000000000000000000000000000000000008F
:10017000000000000000000000000000000000007F
:10018000000000000000000000000000000000006F
:10019000000000000000000000000000000000005F
:1001A000000000000000000000000000000000004F
:1001B000A9030000AB030000AD030000AF03000083
:1001C000B1030000B3030000B5030000B703000053
:1001D000B9030000BB030000BD030000BF03000023
:1001E000C1030000C3030000C503000000000000BD
:1001F00000000000C7030000C9030000CB0300009B
:10020000CD030000CF03000000000000000000004C
:10021000D1030000D3030000D5030000D703000082
:10022000D9030000DB030000DD030000DF03000052
:10023000E1030000E3030000E5030000E703000022
:10024000E9030000EB030000ED030000EF030000F2
:10025000F1030000F3030000F5030000F7030000C2
:10026000F9030000FB030000FD03000000F002F8AA
:1002700000F03CF80AA090E8000C82448344AAF104
:100280000107DA4501D100F031F8AFF2090EBAE802
:100290000F0013F0010F18BFFB1A43F001031847BA
:1002A0000816000028160000103A24BF78C878C14C
:1002B000FAD8520724BF30C830C144BF04680C606C
:1002C000704700000023002400250026103A28BFB4
:1002D00078C1FBD8520728BF30C148BF0B607047B8
:1002E0001FB501F0C9FA1FBD10B510BD00F09BF895
:1002F0001146FFF7F5FF01F0A7F800F0B9F803B4D5
:10030000FFF7F2FF03BC00F0C1F800003F48804750
:100310003F480047FEE7FEE7FEE7FEE7FEE7FEE7B1
:10032000FEE7FEE7FEE7FEE7FEE7FEE7FEE7FEE7A5
:10033000FEE7FEE7FEE7FEE7FEE7FEE7FEE7FEE795
:10034000FEE7FEE7FEE7FEE7FEE7FEE7FEE7FEE785
:10035000FEE7FEE7FEE7FEE7FEE7FEE7FEE7FEE775
:10036000FEE7FEE7FEE7FEE7FEE7FEE7FEE7FEE765
:10037000FEE7FEE7FEE7FEE7FEE7FEE7FEE7FEE755
:10038000FEE7FEE7FEE7FEE7FEE7FEE7FEE7FEE745
:10039000FEE7FEE7FEE7FEE7FEE7FEE7FEE7FEE735
:1003A000FEE7FEE7FEE7FEE7FEE7FEE7FEE7FEE725
:1003B000FEE7FEE7FEE7FEE7FEE7FEE7FEE7FEE715
:1003C000FEE7FEE7FEE7FEE7FEE7FEE7FEE7FEE705
:1003D000FEE7FEE7FEE7FEE7FEE7FEE7FEE7FEE7F5
:1003E000FEE7FEE7FEE7FEE7FEE7FEE7FEE7FEE7E5
:1003F000FEE7FEE7FEE7FEE7FEE7FEE7FEE70000BA
:1004000004480549034A054B7047000039120000B3
:100410006D02000040010020400300204001002048
:10042000704770477047754600F02CF8AE460500DF
:100430006946534620F00700854618B020B5FFF7FF
:10044000DFFFBDE820404FF000064FF000074FF0FF
:1004500000084FF0000B21F00701AC46ACE8C009E2
:10046000ACE8C009ACE8C009ACE8C0098D467047EB
:1004700010B50446AFF300802046BDE81040FFF7FA
:100480003EBF000000487047E000002001491820EE
:10049000ABBEFEE7260002007047000010B5002446
:1004A00016E00D480068E04000F0010070B10B4814
:1004B00050F8240050B10A4800680121A1400843C7
:1004C00007490860054951F824008047601CC4B200
:1004D000052CE6DB10BD0000144400402000002085
:1004E0001C54024010B5002416E00D480068E0409E
:1004F00000F0010070B10B4850F8240050B10A48D8
:1005000000680121A140084307490860054951F8E6
:1005100024008047601CC4B2052CE6DB10BD00003F
:1005200014540240400000201C54004010B5002428
:1005300016E00D480068E04000F0010070B10B4883
:1005400050F8240050B10A4800680121A140084336
:1005500007490860054951F824008047601CC4B26F
:10056000052CE6DB10BD00001454024060000020A2
:100570001C64004010B5002416E00D480068E040FF
:1005800000F0010070B10B4850F8240050B10A4847
:1005900000680121A140084307490860054951F856
:1005A00024008047601CC4B2052CE6DB10BD0000AF
:1005B00014540240800000201C74004010B5002438
:1005C00016E00D480068E04000F0010070B10B48F3
:1005D00050F8240050B10A4800680121A1400843A6
:1005E00007490860054951F824008047601CC4B2DF
:1005F000052CE6DB10BD000014540240A0000020D2
:100600001C44024030B503460020062B01DC0729BC
:1006100001DD012010E0042B04DA4FF0402404EB4C
:10062000033403E01C1F054D05EB0434D4F8FC43F0
:10063000CC4004F00104147030BD000000400240C2
:1006400070B503460020012A1DD1042B04DA4FF0B7
:10065000402404EB033403E01C1F1B4D05EB043462
:10066000D4F8FC5301248C402543042B04DA4FF0CA
:10067000402404EB033403E01C1F134E06EB043448
:10068000C4F8FC531FE0EAB9042B04DA4FF040240D
:1006900004EB033403E01C1F0B4D05EB0434D4F8CA
:1006A000FC5301248C40A543042B04DA4FF0402472
:1006B00004EB033403E01C1F034E06EB0434C4F8C0
:1006C000FC5300E0012070BD0040024001460020C4
:1006D0000C2901DD012009E0054A02EB0132D26854
:1006E00022F00102024B03EB0133DA607047000095
:1006F000000003402DE9F0412DED088B04460D4626
:1007000000269FED1A0BB0EE408AF0EE608A0027BB
:100710000C2C01DD012723E0284601F046F841ECCE
:100720001B0B9FED140B53EC102B00F0B9FE41ECAA
:100730001A0B53EC182B00F0B3FE41EC190B01F02F
:1007400007F806460D4800EB043086620B4800EBC4
:100750000430C06840F00100084901EB0431C86072
:100760003846BDEC088BBDE8F08100008DEDB5A0EA
:10077000F7C6703E0000000000408F4000000340BC
:1007800010B5014600220C2901DD01221CE00F48B2
:1007900000EB0130806940F001000C4B03EB0133AA
:1007A0009861132000280DDB00BF00BF00F01F047C
:1007B0000123A3404409A40004F1E024C4F800315B
:1007C00000BF00BF00BF62B6104610BD000003406E
:1007D00030B502460023002100BFBFE012F821001F
:1007E000614C2468012585402C435F4D2C605F4C93
:1007F00004EB0034246824F001045C4D05EB003563
:100800002C6002EB8104A478002C4AD1574C04EBF5
:100810000034E46824F00104544D05EB0035EC602D
:1008200002EB81046478012C0AD1504C04EB0034B3
:10083000646844F001044D4D05EB00356C600FE039
:1008400002EB8104647854B9484C04EB00346468CA
:1008500044F00204454D05EB00356C6000E00323D5
:1008600002EB8104E47854B9404C04EB0034646832
:1008700044F010043D4D05EB00356C6062E002EB86
:100880008104E478012C0AD1384C04EB003464680C
:1008900024F01004354D05EB00356C6052E0032365
:1008A00050E002EB8104A478012C4AD12F4C04EBD8
:1008B0000034E46824F480742C4D05EB0035EC60C2
:1008C00002EB81046478012C0AD1284C04EB00343B
:1008D000A46844F00104254D05EB0035AC600FE041
:1008E00002EB8104647854B9204C04EB0034A46812
:1008F00044F002041D4D05EB0035AC6000E003231D
:1009000002EB8104E47854B9184C04EB0034A46879
:1009100044F01004154D05EB0035AC6012E002EB1D
:100920008104E478012C0AD1104C04EB0034A46853
:1009300024F010040D4D05EB0035AC6002E00323FC
:1009400000E00323094C04EB0034E46844F00204A3
:10095000064D05EB0035EC60481CC1B20129FFF6DD
:100960003DAF184630BD000004E60F4000000340D4
:100970003EB504460B4A07CA8DE80700A0788DF8FB
:10098000010020788DF8050060788DF80600684633
:1009900000F096F8684600F093F800B101250025B4
:1009A00028463EBD9C18000070B50446617820784A
:1009B0000022FFF745FE06460EB9002500E001259E
:1009C000284670BD70B50446617820780122FFF793
:1009D00037FE06460EB9002500E00125284670BD09
:1009E0003EB504460A4A07CA8DE80700A0788DF88C
:1009F000030020788DF8050060788DF806006846C1
:100A000000F05EF808B9002500E0012528463EBD4B
:100A1000841800007FB504460D461A4A07CA8DE8BF
:100A20000700A0788DF8030020788DF80500607825
:100A30008DF80600684600F043F800B101266178A1
:100A4000207803AAFFF7DEFDA07840B99DF80C00DE
:100A5000012801D1287010E0002028700DE0A07856
:100A6000012809D19DF80C00012802D1002028702E
:100A700003E00120287000E002260426304604B07E
:100A800070BD00009018000070B504460D460026A9
:100A900004FB05F06421B0FBF1F00749086008464B
:100AA0000068201A05490860084601680020FFF721
:100AB00021FE304670BD0000180000201C00002000
:100AC000F0B50346002503B90225002400BFA1E3C9
:100AD00004EB440000EBC4001844417904EB4400EB
:100AE00000EBC40018448279F848006801268E4063
:100AF0003043F64E306004EB440000EBC400184471
:100B00008078012876D1042904DA4FF0402000EBE8
:100B1000013003E0081FEE4E06EB0030D0F8006411
:100B2000012090400643042904DA4FF0402000EBF6
:100B3000013003E0081FE64F07EB0030C0F8006407
:100B400004EB440000EBC4001844407801281DD198
:100B5000042904DA4FF0402000EB013003E0081FC5
:100B6000DB4E06EB0030D0F8FC63012090400643DA
:100B7000042904DA4FF0402000EB013003E0081FA5
:100B8000D34F07EB0030C0F8FC6325E004EB4400D2
:100B900000EBC40018444078E8B9042904DA4FF0A7
:100BA000402000EB013003E0081FC94E06EB003087
:100BB000D0F8FC63012090408643042904DA4FF00A
:100BC000402000EB013003E0081FC14F07EB00306D
:100BD000C0F8FC6300E0012504EB440000EBC40016
:100BE00018440079F0B9042905DA4FF0402000EBF1
:100BF000013004E063E0081FB54E06EB0030D0F88A
:100C00000065012090400643042904DA4FF040209B
:100C100000EB013003E0081FAD4F07EB0030C0F8D8
:100C200000654CE004EB440000EBC400184400797C
:100C300001281DD1042904DA4FF0402000EB0130D7
:100C400003E0081FA24E06EB0030D0F80465012037
:100C500090400643042904DA4FF0402000EB0130B5
:100C600003E0081F9A4F07EB0030C0F8046526E048
:100C700004EB440000EBC4001844007902281DD1A5
:100C8000042904DA4FF0402000EB013003E0081F94
:100C90008F4E06EB0030D0F80865012090400643E7
:100CA000042904DA4FF0402000EB013003E0081F74
:100CB000874F07EB0030C0F8086500E0012504EB22
:100CC000440000EBC400185C98BB042904DA4FF020
:100CD000402000EB013003E0081F7D4E06EB0030A2
:100CE000D0F81C65012090400643042904DA4FF037
:100CF000402000EB013003E0081F754F07EB003088
:100D0000C0F81C65042904DA4FF0402000EB0130E4
:100D100003E0081F6E4E06EB0030D0F8206401207F
:100D200090408643042905DA4FF0402000EB013063
:100D300004E023E0081F664F07EB0030C0F8206492
:100D4000042904DA4FF0402000EB013003E0081FD3
:100D50005F4E06EB0030D0F82865012090408643B6
:100D6000042904DA4FF0402000EB013003E0081FB3
:100D7000574F07EB0030C0F82865C3E004EB440090
:100D800000EBC400185C012857D1042904DA4FF0A5
:100D9000402000EB013003E0081F4D4E06EB003011
:100DA000D0F81C65012090408643042904DA4FF0F6
:100DB000402000EB013003E0081F454F07EB0030F7
:100DC000C0F81C65042904DA4FF0402000EB013024
:100DD00003E0081F3E4E06EB0030D0F820640120EF
:100DE00090408643042904DA4FF0402000EB0130A4
:100DF00003E0081F364F07EB0030C0F820640429D9
:100E000004DA4FF0402000EB013003E0081F304EC1
:100E100006EB0030D0F828650120904006430429F5
:100E200004DA4FF0402000EB013003E0081F284FA8
:100E300007EB0030C0F8286564E004EB440000EBE9
:100E4000C400185C02285CD1042904DA4FF0402069
:100E500000EB013003E0081F1D4E06EB0030D0F818
:100E60001C65012090408643042904DA4FF040209D
:100E700000EB013003E0081F154F07EB0030C0F80E
:100E80001C65042904DA4FF0402000EB013003E038
:100E9000081F0F4E06EB0030D0F820640120904070
:100EA0000643042904DA4FF0402000EB013003E050
:100EB000081F074F07EB0030C0F82064042909DA47
:100EC0004FF0402000EB013008E0000008E60F4042
:100ED00000400240081FD24E06EB0030D0F82865D3
:100EE000012090408643042904DA4FF0402000EBB3
:100EF000013003E0081FCA4F07EB0030C0F8286537
:100F000000E0012504EB440000EBC4001844C07865
:100F1000E8B9042904DA4FF0402000EB013003E087
:100F2000081FBF4E06EB0030D0F81065012090403E
:100F30000643042904DA4FF0402000EB013003E0BF
:100F4000081FB74F07EB0030C0F810654CE004EB0A
:100F5000440000EBC4001844C07801281DD10429C6
:100F600004DA4FF0402000EB013003E0081FAC4EE4
:100F700006EB0030D0F814650120904006430429A8
:100F800004DA4FF0402000EB013003E0081FA44FCB
:100F900007EB0030C0F8146526E004EB440000EBDA
:100FA000C4001844C07802281DD1042904DA4FF087
:100FB000402000EB013003E0081F994E06EB0030A3
:100FC000D0F80C65012090400643042904DA4FF064
:100FD000402000EB013003E0081F914F07EB003089
:100FE000C0F80C6500E0012504EB440000EBC400F0
:100FF0001844C079012871D104EB440000EBC4000F
:101000001844007AE8B9042904DA4FF0402000EBD4
:10101000013003E0081F824E06EB0030D0F8046474
:10102000012090408643042904DA4FF0402000EB71
:10103000013003E0081F7A4F07EB0030C0F804646A
:1010400027E004EB440000EBC4001844007A0128B8
:101050001DD1042904DA4FF0402000EB013003E0F9
:10106000081F6F4E06EB0030D0F80464012090405A
:101070000643042904DA4FF0402000EB013003E07E
:10108000081F674F07EB0030C0F8046401E001203F
:10109000F0BD04EB440000EBC4001844407AF0B902
:1010A000042904DA4FF0402000EB013003E0081F70
:1010B0005B4E06EB0030D0F80C6401209040864374
:1010C000042904DA4FF0402000EB013003E0081F50
:1010D000534F07EB0030C0F80C644DE098E004EB90
:1010E000440000EBC4001844407A01281DD10429B3
:1010F00004DA4FF0402000EB013003E0081F484EB7
:1011000006EB0030D0F80C6401209040064304291F
:1011100004DA4FF0402000EB013003E0081F404F9D
:1011200007EB0030C0F80C6426E004EB440000EB51
:10113000C4001844407A02281DD1042904DA4FF073
:10114000402000EB013003E0081F354E06EB003075
:10115000D0F80864012090400643042904DA4FF0D7
:10116000402000EB013003E0081F2D4F07EB00305B
:10117000C0F8086400E0012504EB440000EBC40063
:101180001844807AE8B9042904DA4FF0402000EBD3
:10119000013003E0081F224E06EB0030D0F8106447
:1011A000012090408643042904DA4FF0402000EBF0
:1011B000013003E0081F1A4F07EB0030C0F810643D
:1011C00026E004EB440000EBC4001844807A0128B8
:1011D0001DD1042904DA4FF0402000EB013003E078
:1011E000081F0F4E06EB0030D0F81064012090402D
:1011F0000643042904DA4FF0402000EB013003E0FD
:10120000081F074F07EB0030C0F8106400E001250D
:10121000601CC4B2012CFFF65BAC284638E7000026
:101220000040024010B50348006810B10148006852
:10123000804710BD0C0000201B49096841F4700173
:10124000194A116019491A4A11671A4911661A494F
:1012500011661A491167002000E0401CB0F57A7F42
:10126000FBD31749124A116616491167002000E0A6
:10127000401CB0F57A7FFBD313490D4A116600BFBD
:101280000B49096D01F040014029F9D10F49084A85
:1012900011664FF0C0711167002000E0401C42F25F
:1012A00010718842FAD3704788ED00E0102880075B
:1012B00000E00F40D13A8E07422D9E0100288001A8
:1012C000420D9E0100088001420DDE014205DE0153
:1012D00010B50848006858B10020FFF7F7F9064834
:1012E000406A40F0010004494862024800688047B3
:1012F00010BD0000140000200000034010B5084895
:10130000FFF736FB0748FFF76BFB07480749086004
:101310000748FFF75DFA0020FFF732FA62B610BD0A
:1013200003000020000000205514000014000020DD
:10133000100000201CB53E493E48FFF76BFB3C48BF
:101340000078012803D100203B49087055E0384857
:101350000078002851D13848007800284DD101206C
:10136000354908703548007880B93548FFF71CFBCF
:101370000020344908701E214FF4FA70FFF784FBF7
:101380002E480078401C2D49087036E02B48007824
:10139000012810D12A48FFF707FB002029490870CF
:1013A0003C214FF4FA70FFF76FFB24480078401C93
:1013B0002249087021E021480078022810D12048F5
:1013C000FFF7F2FA00201F4908705A214FF4FA7013
:1013D000FFF75AFB19480078401C184908700CE0C8
:1013E00016480078032808D11548FFF7DDFA0020D9
:1013F000FFF76CF90020114908700020019010E0FF
:101400000020009004E0BDF80000401C80B2009075
:10141000BDF800006428F6DBBDF80400401C80B273
:101420000190BDF80400B0F57A7FE9DB1CBD000037
:101430000600002000000020080000200700002017
:101440000300002009000020FFF758FF01E0FFF72C
:1014500071FFFCE710B50E48007801280BD10D484C
:10146000FFF7A2FA0C4801680020FFF743F90020BB
:10147000074908700AE00748FFF7A4FA074801681F
:101480000020FFF737F901200149087010BD000066
:1014900009000020030000201C000020180000208C
:1014A0002DE9C04130B4DFF8A0C23CEA111418BFE6
:1014B0003CEA131400F0EC8081EA03051CEA1114E5
:1014C00044EAD57418BF1CEA131500F0C780A4EBDA
:1014D00005044FF0004545EAC12145EAC32341EA2E
:1014E000505143EA525304F17F74994204F5003499
:1014F0004FEAC0204FEAC22208BF904200F09C8011
:101500004FEA13650FF24016765D4FEA134506FB6E
:1015100005F7C7F1807706FB07F74FEAD737A7FB38
:1015200003687642C8F58038A7FB06CE38BFA8F11D
:10153000010807FB08E64FF0000EA6FB028CE6FB55
:1015400003CEDCF1000CCEF1004E38BFAEF1010E3F
:10155000A6FB0C584FF000074FF00005E6FB0E8786
:10156000A1FB08C6A0FB07CE16EB0E0645F1000551
:10157000E1FB076515F1E04E7EBFA4F580345FEA1C
:1015800046066D4116F1800745F100054FEA172721
:101590004FEA066647EA0567A6F1DE46B6F1805FC8
:1015A0004FEA15251FD9384624F0010C05EBC4710C
:1015B000BCF1FE6F01EB0C1102D8F0BCBDE800815C
:1015C00024425CBF01F5801E9EEAC47F02D4F0BCB9
:1015D000BDE80081244238D4F0BCA1F1C041BDE88F
:1015E000004100F043B94FEAD22242EA43524FEAA7
:1015F000D323A7FB02864FEAD02040EA415007FBE5
:1016000003661EEA0E0F4FEAD12105FB026658BFA2
:10161000A6EB0056B6EB00564FEA520E4EEAC37EDA
:1016200018EB0E0E56EB530EBDD518EB02085E41BB
:101630007F1C55F10005B6E74FF480154FF0000709
:101640004FF000064FF00008ADE7F0BC4FF000008F
:1016500001F1C04101F00041BDE8008111EA0C1F19
:101660000CEA131500D00CE013EA0C1F00F02580E3
:101670004FF00000F0BC81EA030101F00041BDE839
:101680000081F0BCBDE8004181EA030100F0EEB842
:10169000F0BCBDE8004170B500F09AF8097EFC3E50
:1016A00000F007B881EA03014FF0000001F00041AB
:1016B000704781EA030100F0D9B8F0BCBDE80041F1
:1016C0004FF0000021497047FFFDFBF9F7F5F4F2F8
:1016D000F0EEEDEBE9E8E6E4E3E1E0DEDDDBDAD8CD
:1016E000D7D5D4D3D1D0CFCDCCCBCAC8C7C6C5C42B
:1016F000C2C1C0BFBEBDBCBBBAB9B8B7B6B5B4B342
:10170000B2B1B0AFAEADACABAAA9A8A8A7A6A5A42C
:10171000A3A3A2A1A09F9F9E9D9C9C9B9A999998F0
:101720009797969595949393929191908F8F8E8E93
:101730008D8C8C8B8B8A8989888887878685858420
:1017400084838382828181800000FF070000F87F0C
:101750004FEA1153A3F58063D3F11E03A8BFD3F161
:10176000200C08DB4FF0004242EAC12252EA5052FC
:1017700032FA03F0704709420BD4102BC4BF00208B
:10178000704703F5787CBCF1FF3F05D04FF0FF3088
:1017900070474FF00000704770B500F019F800BFB7
:1017A0004992248000207047F0E7B0FA80F310FAE5
:1017B00003F10AD0C3F11D0303F580634FEA4150E2
:1017C0004FEA035202EBD12170474FF000007047FF
:1017D0000EF1020E2EF0030E5EF8046B364205D4B5
:1017E000012A43EB030515F5001F12D8012841EB30
:1017F000010C1CF5001F0CD80ED14FEAD17C15F559
:10180000001F0CEB4C0C0CF1020C08BF4CEBD37C12
:1018100004E04FF0080C01E04FEAD37C0CEB4C05E0
:1018200026FA05F606F00706B6F1040C06D20EEB12
:10183000860CBDE870404CF0010C6047DFE80CF00E
:10184000090B02024FF000414FF00000A1F500210A
:1018500070BD19461046012851EB010418BFD4F59C
:10186000001484BF002001F0004170BD0808A0F5FD
:1018700000114FEA310170474FF04070E1EE100A5D
:1018800070470000000000000100000000000000A0
:101890000000000001000000000000000000010145
:1018A0000200000000000000C81800000000002036
:1018B00020000000A8020000E8180000200000201E
:1018C00020030000C402000005040005030000001E
:1018D0000000000000000000000100010000000006
:0818E000000000000000000000
:040000050000026D88
:00000001FF
