:100000000C942A000C9447000C9447000C94470071
:100010000C9447000C9447000C9447000C94470044
:100020000C9447000C9447000C9447000C94470034
:100030000C9447000C9489020C9447000C94B40271
:100040000C9447000C9447000C9447000C94470014
:100050000C94470011241FBECFE5D8E0DEBFCDBF12
:1000600010E0A0E6B0E0E8E3F6E002C005900D92F3
:10007000A839B107D9F720E0A8E9B0E001C01D9286
:10008000A93BB207E1F70E9449000C941A030C94B3
:100090000000C1E003C0C2E001C0C3E0C13031F0E4
:1000A000C8F0C230F1F0C33011F1F8CF84E790E02E
:1000B0000E94E50281E690E00E947D0080E690E0EB
:1000C0000E947D006BE770E084E790E00E940003EF
:1000D000C0E0E4CF0E9409038530E9F28630F1F6F2
:1000E000DCCF81E690E00E94A600C0E0D7CF80E69A
:1000F00090E00E94A600C0E0D1CFCF93DF931F9283
:10010000CDB7DEB70097E9F0FC012081922F977000
:100110008981887F892B922F9695969596959770D1
:10012000990F990F990F877C892B26FB222720F99D
:10013000806420FB87F98983CE0101960E947901B2
:1001400001C080E00F90DF91CF910895CF93DF93AE
:100150001F92CDB7DEB70097E9F0FC012081922F06
:1001600097708981887F892B922F96959695969581
:100170009770990F990F990F877C892B26FB22275F
:1001800020F9806420FB87F98983CE0101960E94C3
:10019000500101C080E00F90DF91CF910895FC01E4
:1001A000892BD1F12081269526952695277080816F
:1001B00086FB992790F986FF18C0913079F5E82FD2
:1001C000E770F0E0EE0FFF1FE659FF4F0190F0815E
:1001D000E02D308181E090E002C0880F991F2A95C0
:1001E000E2F7832B808381E00895E081E770F0E0FF
:1001F000EE0FFF1FE659FF4F0190F081E02D308197
:1002000081E090E002C0880F991F2A95E2F780955F
:100210008323808381E0089580E0089580E008953D
:100220000097D1F1DC012C91269526952695277013
:10023000662319F06130C9F031C0DC01EC91E77040
:10024000F0E0EE0FFF1FEE59FF4F0190F081E02D1F
:10025000308181E090E002C0880F991F2A95E2F773
:1002600080958323808381E00895DC01EC91E77021
:10027000F0E0EE0FFF1FEE59FF4F0190F081E02DEF
:10028000308181E090E002C0880F991F2A95E2F743
:10029000832B808381E0089580E0089580E00895B5
:1002A000FC01892B11F19081969596959695977002
:1002B000292F30E027303105D4F4E081E770F0E0F9
:1002C000EE0FFF1FEE59FF4F0190F081E02D4081AE
:1002D00021E030E0B90102C0660F771F9A95E2F77E
:1002E000CB018427808381E0089580E0089580E039
:1002F0000895CF93DF93009759F0EC010E94CF004F
:10030000688167FB662760F9CE010E94100101C079
:1003100080E0DF91CF9108958FB780688FBF0895F7
:10032000009721F09093A00080939F00089500977C
:1003300021F090939E0080939D0008958AB188617A
:100340008AB90895CF93DF93EC010E949E01209714
:1003500009F491C08881882319F0813031F008C0F8
:1003600080B580688F7B80BD03C080B5806C80BD08
:100370008981813049F018F0823059F00DC080B584
:1003800080688F7C80BD08C080B580628F7E80BD14
:1003900003C080B5806B80BD8A81882319F08130CD
:1003A00031F008C080B58068877F80BD03C080B50C
:1003B000886880BD8B818230E1F028F4882341F089
:1003C000813071F02BC08330E1F0843009F126C018
:1003D0008AB18B7F8AB980B58068897F80BD1EC055
:1003E0008AB18B7F8AB980B580688D7F846080BD3B
:1003F00015C08AB18B7F8AB980B582688B7F80BD3A
:100400000DC08AB18B7F8AB980B5866880BD06C071
:100410008AB184608AB980B5866880BD8C81882362
:1004200019F0813029F007C08AB1806C8AB903C005
:100430008AB18F738AB98D81882319F0813041F098
:100440000EC08BB18D7F8BB98E8189B910BC07C06E
:100450008BB182608BB98F8189B9888580BD8B858E
:100460009C850E94900189859A850E9497010E942F
:100470008C0180E001C086E0DF91CF9108958AB1C0
:10048000877E8AB9089510929800FC0180818CB90A
:10049000089520919B0030919C002617370780F427
:1004A000FC01E20FF31F8CB1808380919B0090913F
:1004B0009C00019690939C0080939B0085E008959A
:1004C00081E08093990010929C0010929B0084E040
:1004D000089520917200309173002617370780F439
:1004E000FC01E20FF31F80818CB980917200909122
:1004F00073000196909373008093720083E00895D7
:10050000109273001092720081E080939A0082E052
:1005100008951F920F920FB60F9211242F933F93BD
:100520004F935F936F937F938F939F93AF93BF93FB
:10053000EF93FF93E0919F00F091A00066E170E0DF
:1005400083EA90E00995FF91EF91BF91AF919F9160
:100550008F917F916F915F914F913F912F910F906C
:100560000FBE0F901F9018951F920F920FB60F920B
:1005700011242F933F934F935F936F937F938F93A8
:100580009F93AF93BF93EF93FF93E0919D00F09102
:100590009E006FE070E08BE790E00995FF91EF918E
:1005A000BF91AF919F918F917F916F915F914F918B
:1005B0003F912F910F900FBE0F901F901895909321
:1005C000A2008093A10087E00895CF93DF93009766
:1005D00099F0EC0189819A810E94DF0288812DE0E7
:1005E000829FC0011124E091A100F091A2008657E2
:1005F0009F4F099581E001C082E0DF91CF9108957E
:10060000DC011396ED91FC911497CB01099581E0E3
:10061000089580919A00813021F410929A0085E02B
:1006200001C080E090919900913019F410929900E6
:0806300086E00895F894FFCF65
:1006380030283B003800350032003A0037003400DB
:100648003100010000A20143023F025B42434D20FA
:100658004F7065726174696E675D00000003000089
:0806680033670069024902003A
:00000001FF
