:100000000C942A000C949F020C94CC020C94F902DC
:100010000C9447000C9447000C9447000C94470044
:100020000C9447000C9447000C9447000C94470034
:100030000C9447000C9447000C9447000C94470024
:100040000C9447000C9447000C9447000C94470014
:100050000C94470011241FBECFE5D8E0DEBFCDBF12
:1000600010E0A0E6B0E0EEEBF1E102C005900D92E9
:10007000A438B107D9F710E0A4E8B0E001C01D92A0
:10008000AB38B107E1F70E94D4080C94DD080C945A
:100090000000DF93CF93CDB7DEB7AFE5B0E0EFE57B
:1000A000F0E0808180688C93CF91DF910895DF9399
:1000B000CF9300D000D00F92CDB7DEB79B838A8359
:1000C00019828A819B81009711F4198245C1EA81C6
:1000D000FB818281282F30E03D832C838C819D81A0
:1000E0008130910509F489C02C813D812230310590
:1000F00009F401C18C819D81009709F02DC1EA812D
:10010000FB8183818823D1F40E944900ABE5B0E0F4
:10011000EBE5F0E0808180648C93A5E5B0E0E5E557
:10012000F0E080818D7F8C93A5E5B0E0E5E5F0E01F
:1001300080818E7F8C9381E089830EC1EA81FB816F
:1001400083818130D1F40E944900ABE5B0E0EBE55A
:10015000F0E0808180648C93A5E5B0E0E5E5F0E017
:1001600080818D7F8C93A5E5B0E0E5E5F0E08081AE
:1001700081608C9381E08983EFC0EA81FB81838178
:100180008230D1F40E944900ABE5B0E0EBE5F0E04D
:10019000808180648C93A5E5B0E0E5E5F0E08081A6
:1001A00082608C93A5E5B0E0E5E5F0E080818E7F8C
:1001B0008C9381E08983D0C0EA81FB818381833085
:1001C000D1F40E944900ABE5B0E0EBE5F0E08081BE
:1001D00080648C93A5E5B0E0E5E5F0E08081826085
:1001E0008C93A5E5B0E0E5E5F0E0808181608C933B
:1001F00081E08983B1C01982AFC0EA81FB8183812C
:100200008823D1F40E944900ABE5B0E0EBE5F0E0D3
:10021000808180688C93A5E5B0E0E5E5F0E0808121
:10022000877F8C93A5E5B0E0E5E5F0E080818B7FEA
:100230008C9381E0898390C0EA81FB818381813046
:10024000D1F40E944900ABE5B0E0EBE5F0E080813D
:1002500080688C93A5E5B0E0E5E5F0E08081877FDC
:100260008C93A5E5B0E0E5E5F0E0808184608C93B7
:1002700081E0898371C0EA81FB8183818230D1F47E
:100280000E944900ABE5B0E0EBE5F0E080818068DA
:100290008C93A5E5B0E0E5E5F0E0808188608C9383
:1002A000A5E5B0E0E5E5F0E080818B7F8C9381E00F
:1002B000898352C0EA81FB8183818330D1F40E941B
:1002C0004900ABE5B0E0EBE5F0E0808180688C931D
:1002D000A5E5B0E0E5E5F0E0808188608C93A5E5D8
:1002E000B0E0E5E5F0E0808184608C9381E0898373
:1002F00033C0198231C0EA81FB818381823099F455
:100300000E944900ABE5B0E0EBE5F0E0808180625F
:100310008C93A4E5B0E0E4E5F0E080818F7B8C93E2
:1003200081E0898319C0EA81FB818381833099F45C
:100330000E944900ABE5B0E0EBE5F0E0808180622F
:100340008C93A4E5B0E0E4E5F0E0808180648C93D8
:1003500081E0898301C0198289810F900F900F90ED
:100360000F900F90CF91DF910895DF93CF9300D03E
:1003700000D00F92CDB7DEB79B838A8319828A8122
:100380009B81009711F4198232C0EA81FB8182813E
:10039000282F30E03D832C838C819D818130910515
:1003A00099F02C813D8122303105C1F08C819D81F5
:1003B0000097E9F4ABE5B0E0EBE5F0E080818F7BFE
:1003C0008C9381E0898313C0ABE5B0E0EBE5F0E00E
:1003D00080818F778C9381E0898309C0ABE5B0E0A1
:1003E000EBE5F0E080818F778C9381E089838981D0
:1003F0000F900F900F900F900F90CF91DF91089575
:10040000DF93CF9300D00F92CDB7DEB79B838A8363
:1004100019828A819B81009711F4198208C08A8110
:100420009B81909385008093840081E089838981FA
:100430000F900F900F90CF91DF910895DF93CF939E
:1004400000D00F92CDB7DEB79B838A8319828A8151
:100450009B81009711F4198208C08A819B81909337
:1004600087008093860081E0898389810F900F90B7
:100470000F90CF91DF910895DF93CF9300D00F922B
:10048000CDB7DEB79B838A8319828A819B810097CF
:1004900011F4198208C08A819B819093890080930E
:1004A000880081E0898389810F900F900F90CF9110
:1004B000DF910895DF93CF9300D000D00F92CDB796
:1004C000DEB79B838A8319828A819B81009711F40E
:1004D00019822CC0EA81FB818281282F30E03D8384
:1004E0002C838C819D818130910589F02C813D8107
:1004F00022303105A1F08C819D810097B9F4EA8109
:10050000FB81808191810E94000289830FC0EA8172
:10051000FB81808191810E941E02898307C0EA814C
:10052000FB81808191810E943C02898389810F90A7
:100530000F900F900F900F90CF91DF9108951F9221
:100540000F920FB60F9211242F933F934F935F9307
:100550006F937F938F939F93AF93BF93EF93FF938B
:10056000DF93CF93CDB7DEB7E0918400F0918500A3
:100570000995CF91DF91FF91EF91BF91AF919F913D
:100580008F917F916F915F914F913F912F910F903C
:100590000FBE0F901F9018951F920F920FB60F92DB
:1005A00011242F933F934F935F936F937F938F9378
:1005B0009F93AF93BF93EF93FF93DF93CF93CDB709
:1005C000DEB7E0918600F09187000995CF91DF9129
:1005D000FF91EF91BF91AF919F918F917F916F911B
:1005E0005F914F913F912F910F900FBE0F901F90F1
:1005F00018951F920F920FB60F9211242F933F93CD
:100600004F935F936F937F938F939F93AF93BF931A
:10061000EF93FF93DF93CF93CDB7DEB7E0918800E0
:10062000F09189000995CF91DF91FF91EF91BF91F2
:10063000AF919F918F917F916F915F914F913F917A
:100640002F910F900FBE0F901F901895DF93CF93AF
:1006500000D000D00F92CDB7DEB79B838A8319827A
:100660008A819B81009761F0EA81FB818081869578
:10067000869586958770882F90E08830910514F0D4
:1006800019827EC0EA81FB8180818295869586955C
:1006900083708170282F30E03D832C838C819D8175
:1006A0000097C9F12C813D812130310509F067C0E7
:1006B000EA81FB8180818770882F90E0880F991FE5
:1006C000FC01E05AFF4FA081B181EA81FB8180816A
:1006D0008770882F90E0880F991FFC01E05AFF4F28
:1006E0000190F081E02D8081482FEA81FB8180819B
:1006F0008695869586958770282F30E081E090E07A
:10070000022E02C0880F991F0A94E2F7842B8C9363
:1007100081E0898335C0EA81FB8180818770882FE1
:1007200090E0880F991FFC01E05AFF4FA081B18132
:10073000EA81FB8180818770882F90E0880F991F64
:10074000FC01E05AFF4F0190F081E02D8081482F9D
:10075000EA81FB8180818695869586958770282F12
:1007600030E081E090E0022E02C0880F991F0A94C9
:10077000E2F7809584238C9381E0898301C01982FC
:1007800089810F900F900F900F900F90CF91DF9174
:100790000895DF93CF9300D000D00F92CDB7DEB78E
:1007A0009B838A837D836C8319828A819B810097D6
:1007B00081F08C819D81009761F0EA81FB818081CD
:1007C0008695869586958770882F90E0883091056C
:1007D00014F0198227C0EA81FB8180818770882FFD
:1007E00090E0880F991FFC01E05AFF4F0190F081C3
:1007F000E02D8081282F30E0EA81FB818081869581
:10080000869586958770882F90E0A90102C055953E
:1008100047958A95E2F7CA018170EC81FD8180835A
:1008200081E0898389810F900F900F900F900F9036
:10083000CF91DF910895DF93CF9300D000D000D007
:10084000CDB7DEB79B838A836C8319828A819B81B3
:10085000009761F0EA81FB81808186958695869577
:100860008770882F90E08830910514F0198277C046
:100870008C81282F30E03E832D838D819E810097CF
:1008800031F02D813E8121303105A9F167C0EA8127
:10089000FB8180818770882F90E0880F991FFC0171
:1008A000E859FF4FA081B181EA81FB818081877087
:1008B000882F90E0880F991FFC01E859FF4F0190A5
:1008C000F081E02D8081482FEA81FB81808186952F
:1008D000869586958770282F30E081E090E0022E83
:1008E00002C0880F991F0A94E2F7809584238C93A5
:1008F00081E0898334C0EA81FB8180818770882F01
:1009000090E0880F991FFC01E859FF4FA081B18149
:10091000EA81FB8180818770882F90E0880F991F82
:10092000FC01E859FF4F0190F081E02D8081482FB4
:10093000EA81FB8180818695869586958770282F30
:1009400030E081E090E0022E02C0880F991F0A94E7
:10095000E2F7842B8C9381E0898301C0198289811D
:1009600026960FB6F894DEBF0FBECDBFCF91DF91B4
:100970000895DF93CF9300D000D00F92CDB7DEB7AC
:100980009B838A837D836C8319828A819B810097F4
:1009900081F08C819D81009761F0EA81FB818081EB
:1009A0008695869586958770882F90E0883091058A
:1009B00014F0198227C0EA81FB8180818770882F1B
:1009C00090E0880F991FFC01E059FF4F0190F081E2
:1009D000E02D8081282F30E0EA81FB81808186959F
:1009E000869586958770882F90E0A90102C055955D
:1009F00047958A95E2F7CA018170EC81FD81808379
:100A000081E0898389810F900F900F900F900F9054
:100A1000CF91DF910895DF93CF9300D00F92CDB7A0
:100A2000DEB79B838A8319828A819B81009761F05C
:100A3000EA81FB8180818695869586958770882FCF
:100A400090E08730910514F0198232C0EA81FB8171
:100A500080818770882F90E0880F991FFC01E859EA
:100A6000FF4FA081B181EA81FB8180818770882F4F
:100A700090E0880F991FFC01E859FF4F0190F08129
:100A8000E02D8081482FEA81FB81808186958695C3
:100A900086958770282F30E081E090E0022E02C01A
:100AA000880F991F0A94E2F784278C9381E0898349
:100AB00089810F900F900F90CF91DF910895DF9370
:100AC000CF9300D00F92CDB7DEB79B838A83198274
:100AD0008A819B81009711F4198212C08A819B81BF
:100AE0000E9426038983EA81FB818081881F8827F1
:100AF000881F282F8A819B81622F0E941B04898373
:100B000089810F900F900F90CF91DF910895DF931F
:100B1000CF9300D00F92CDB7DEB78A836B83198253
:100B20008A81853010F019820FC08A81882F90E069
:100B3000880F991FFC01E05AFF4F0190F081E02DD2
:100B40008B81808381E0898389810F900F900F9042
:100B5000CF91DF910895DF93CF9300D000D0CDB730
:100B6000DEB78A837C836B8319828B819C8100979B
:100B700019F08A81853010F0198211C08A81882F7E
:100B800090E0880F991FFC01E05AFF4F0190F0811F
:100B9000E02D8081EB81FC81808381E089838981E4
:100BA0000F900F900F900F90CF91DF910895DF93EA
:100BB000CF9300D00F92CDB7DEB78A836B831982B3
:100BC0008A81853010F019820FC08A81882F90E0C9
:100BD000880F991FFC01E859FF4F0190F081E02D2B
:100BE0008B81808381E0898389810F900F900F90A2
:100BF000CF91DF910895DF93CF9300D000D0CDB790
:100C0000DEB78A837C836B8319828B819C810097FA
:100C100019F08A81853010F0198211C08A81882FDD
:100C200090E0880F991FFC01E059FF4F0190F0817F
:100C3000E02D8081EB81FC81808381E08983898143
:100C40000F900F900F900F90CF91DF910895DF9349
:100C5000CF9300D0CDB7DEB78A8319828A818530E1
:100C600010F019821AC08A81882F90E0880F991F8E
:100C7000FC01E859FF4FA081B1818A81882F90E063
:100C8000880F991FFC01E859FF4F0190F081E02D7A
:100C9000808180958C9381E0898389810F900F906A
:100CA000CF91DF910895DF93CF9300D00F92CDB70E
:100CB000DEB79B838A8319828A819B81009711F416
:100CC000198205C08A819B810E94260389838981BC
:100CD0000F900F900F90CF91DF910895DF93CF93F6
:100CE00000D000D000D0CDB7DEB79C838B837E834D
:100CF0006D8319828B819C81009721F08D819E816B
:100D0000009711F419822DC01A828B819C819E015B
:100D10002E5F3F4FB9010E94B9048983EB81FC81AA
:100D20008281882361F48A81813029F4ED81FE81FA
:100D300081E0808314C0ED81FE81108210C0EB81C0
:100D4000FC818281813059F48A81813021F4ED81E6
:100D5000FE81108204C0ED81FE8181E0808381E00C
:100D60008983898126960FB6F894DEBF0FBECDBF6A
:100D7000CF91DF910895DF93CF9300D000D0CDB70E
:100D8000DEB79C838B8319828B819C81009711F441
:100D9000198235C0EB81FC818081282F2770EB817F
:100DA000FC818081982F9695969596959770EB810A
:100DB000FC818081382F32953695369533703170AD
:100DC00027708A81887F822B8A83892F8770982F4A
:100DD000990F990F990F8A81877C892B8A838A8141
:100DE00080648A83932F9795992797958A818F7727
:100DF000892B8A83CE0102960E945F0589838981AF
:100E00000F900F900F900F90CF91DF910895DF9387
:100E1000CF9300D000D0CDB7DEB79C838B831982EF
:100E20008B819C81009711F4198236C0EB81FC8183
:100E30008081282F2770EB81FC818081982F9695E7
:100E4000969596959770EB81FC818081382F32952D
:100E5000369536953370317027708A81887F822B62
:100E60008A83892F8770982F990F990F990F8A81FC
:100E7000877C892B8A838A8180648A83932F9795C4
:100E8000992797958A818F77892B8A83CE0102963D
:100E900061E00E941B04898389810F900F900F905D
:100EA0000F90CF91DF910895DF93CF9300D000D0C2
:100EB000CDB7DEB79C838B8319828B819C81009791
:100EC00011F4198236C0EB81FC818081282F2770B4
:100ED000EB81FC818081982F9695969596959770D9
:100EE000EB81FC818081382F3295369536953370B1
:100EF000317027708A81887F822B8A83892F87703F
:100F0000982F990F990F990F8A81877C892B8A8353
:100F10008A8180648A83932F9795992797958A81F0
:100F20008F77892B8A83CE01029660E00E941B0492
:100F3000898389810F900F900F900F90CF91DF914F
:100F40000895DF93CF9300D000D0CDB7DEB79C8358
:100F50008B8319828B819C81009711F4198235C093
:100F6000EB81FC818081282F2770EB81FC818081BF
:100F7000982F9695969596959770EB81FC81808138
:100F8000382F3295369536953370317027708A81B7
:100F9000887F822B8A83892F8770982F990F990FCA
:100FA000990F8A81877C892B8A838A8180648A83CE
:100FB000932F9795992797958A818F77892B8A8385
:100FC000CE0102960E940B05898389810F900F90B4
:100FD0000F900F90CF91DF910895DF93CF93CDB70E
:100FE000DEB788E790E00E94BB0689E790E00E94A8
:100FF000BB068AE790E00E94BB068BE790E00E9468
:10100000BB068FE790E00E9457008FE790E00E94B8
:101010005A028CE790E00E94530680918A0081304A
:1010200089F488E790E00E94070789E790E00E9432
:1010300054078AE790E00E9454078BE790E00E94F3
:101040005407EBCF80918A00823089F488E790E0E2
:101050000E94070789E790E00E9407078AE790E06F
:101060000E9454078BE790E00E945407D6CF8091EE
:101070008A00833089F488E790E00E94070789E7B7
:1010800090E00E9407078AE790E00E9407078BE73D
:1010900090E00E945407C1CF80918A00843089F487
:1010A00088E790E00E94070789E790E00E94070721
:1010B0008AE790E00E9407078BE790E00E9407070D
:1010C000ACCF80918A00853089F488E790E00E9457
:1010D000540789E790E00E9407078AE790E00E94A2
:1010E00007078BE790E00E94070797CF80918A005F
:1010F000863089F488E790E00E94540789E790E001
:101100000E9454078AE790E00E9407078BE790E06F
:101110000E94070782CF80918A00873089F488E790
:1011200090E00E94540789E790E00E9454078AE704
:1011300090E00E9454078BE790E00E9407076DCF74
:1011400080918A00883099F488E790E00E945407E3
:1011500089E790E00E9454078AE790E00E945407D4
:101160008BE790E00E94540710928A0056CF88E7E0
:1011700090E00E94540789E790E00E9454078AE7B4
:1011800090E00E9454078BE790E00E94540745CFFF
:10119000DF93CF93CDB7DEB780918A008F5F8093C6
:1011A0008A00CF91DF910895DF93CF93CDB7DEB75B
:0E11B0000E94ED07CF91DF910895F894FFCFD4
:1011BE003A003700340031003B0038003500320071
:1011CE003900360033003000020A121A930100C8AB
:0411DE000800000005
:00000001FF
