:100000000C9452000C946F050C9496050C94BD054D
:100010000C946F000C946F000C946F000C946F00A4
:100020000C946F000C946F000C94C5070C94670738
:100030000C946F000C946F000C946F000C946F0084
:100040000C946F000C946F000C946F000C946F0074
:100050000C946F000C946F000C946F000C946F0064
:100060000C946F000C946F000C946F000C946F0054
:100070000C946F00A300DE0021016C01BF010E0291
:1000800051028B02310636063C06420647064D06F3
:1000900052065806C006C506CB06D206D806DE06AE
:1000A000E506EB0611241FBECFEFD4E0DEBFCDBFC7
:1000B00011E0A0E0B1E0E8EEFFE002C005900D9293
:1000C000AE32B107D9F721E0AEE2B1E001C01D9236
:1000D000A634B207E1F70E94E0030C94F2070C94F7
:1000E0000000109215010895809114018F5F809394
:1000F0001401863019F481E08093140108958091F1
:100100002E018F5F80932E01893011F410922E0101
:1001100008958F929F92AF92BF92CF92DF92EF920B
:10012000FF92E0912E01CE2ED12CF6013197E830CE
:10013000F10508F000C249015A016B017C01E65C3F
:10014000FF4F0C94EC0780912F01811114C0909106
:100150001501913081F481E080932F0182E191E0DB
:100160000E944A03C701B6010E94FD0680E091E0AB
:100170000E94B006E0C190911501911114C0813028
:1001800091F48093150182E080932F0182E191E048
:100190000E947403C501B4010E94FD0680E091E055
:1001A0000E94B006C8C19111C6C1823009F0C3C116
:1001B00081E08093150110922F01BDC180912F0124
:1001C000811118C0909115019130A1F481E08093C4
:1001D0002F0182E191E00E944A0381E191E00E94B7
:1001E0004A0380E091E00E94B006C701B6010E9478
:1001F000FD06A1C190911501911118C08130B1F493
:100200008093150182E080932F0182E191E00E94AA
:10021000740381E191E00E94740380E091E00E9408
:10022000B006C501B4010E94FD0685C1911183C1CC
:10023000823009F080C181E08093150110922F0176
:100240007AC180912F0181111CC0909115019130CC
:10025000C1F481E080932F0182E191E00E944A0382
:1002600081E191E00E944A0380E191E00E944A030B
:1002700080E091E00E94B006C701B6010E94FD0631
:100280005AC19091150191111CC08130D1F4809315
:10029000150182E080932F0182E191E00E947403B6
:1002A00081E191E00E94740380E191E00E94740377
:1002B00080E091E00E94B006C501B4010E94FD06F5
:1002C0003AC1911138C1823009F035C181E0809383
:1002D000150110922F012FC180912F01811120C093
:1002E000909115019130E1F481E080932F0182E13A
:1002F00091E00E944A0381E191E00E944A0380E17B
:1003000091E00E944A038FE091E00E944A0380E05E
:1003100091E00E94B006C701B6010E94FD060BC124
:1003200090911501911120C08130F1F48093150155
:1003300082E080932F0182E191E00E94740381E1C9
:1003400091E00E94740380E191E00E9474038FE0C9
:1003500091E00E94740380E091E00E94B006C50124
:10036000B4010E94FD06E7C09111E5C0823009F09A
:10037000E2C081E08093150110922F01DCC08091D2
:100380002F01811120C0909115019130E1F481E09D
:1003900080932F0182E191E00E94740381E191E05A
:1003A0000E944A0380E191E00E944A038FE091E0BD
:1003B0000E944A0380E091E00E94B006C701B601A6
:1003C0000E94FD06B8C09091150191111CC08130AA
:1003D000D1F48093150182E080932F0181E191E0B7
:1003E0000E94740380E191E00E9474038FE091E029
:1003F0000E94740380E091E00E94B006C501B40140
:100400000E94FD0698C0911196C0823009F093C0F9
:1004100081E08093150110922F018DC080912F01F2
:10042000811118C0909115019130A1F481E0809361
:100430002F0180E191E00E944A038FE091E00E9449
:100440004A0380E091E00E94B006C701B6010E9415
:10045000FD0671C090911501911118C08130B1F461
:100460008093150182E080932F0180E191E00E944A
:1004700074038FE091E00E94740380E091E00E9499
:10048000B006C501B4010E94FD0655C0911153C0CC
:10049000823009F050C081E08093150110922F0145
:1004A0004AC080912F01811114C0909115019130A3
:1004B00081F481E080932F018FE091E00E944A0354
:1004C00080E091E00E94B006C701B6010E94FD06DF
:1004D00032C090911501911114C0813091F4809334
:1004E000150182E080932F018FE091E00E94740358
:1004F00080E091E00E94B006C501B4010E94FD06B3
:100500001AC0911118C08230B1F481E080931501B6
:1005100010922F0110C082E191E00E94740381E1EA
:1005200091E00E94740380E191E00E9474038FE0E7
:1005300091E00E947403FF90EF90DF90CF90BF9006
:10054000AF909F908F90089582E191E00E942103E7
:1005500081E191E00E94210380E191E00E9421036A
:100560008FE091E00E94210388E091E00E94BC04AA
:1005700088E091E00E9452058CE091E00E949E0389
:1005800080E091E00E94FC0563E171E08CE091E085
:100590000E94A50380911301882339F00CC063E108
:1005A00071E08CE091E00E94A50380911301882303
:1005B000B1F30E947F0080911401833009F128F487
:1005C000813041F0823089F0DFCF843021F18530F5
:1005D00069F1DACF24E833E040E050E064E670E00F
:1005E00080E090E00E948900CFCF20E233E040E03D
:1005F00050E068EC70E080E090E00E948900C4CF99
:100600002CEB32E040E050E06CE271E080E090E002
:100610000E948900B9CF24EF31E040E050E064EF60
:1006200071E080E090E00E948900AECF28EC30E0DD
:1006300040E050E060E273E080E090E00E948900DA
:10064000A3CFCF93DF931F92CDB7DEB70097E9F02A
:10065000FC012081922F97708981887F892B922FAE
:100660009695969596959770990F990F990F877C07
:10067000892B26FB222720F9806420FB87F98983B8
:10068000CE0101960E948B0401C080E00F90DF91A3
:10069000CF910895CF93DF931F92CDB7DEB7009728
:1006A000F1F0FC012081922F97708981887F892B3E
:1006B000922F9695969596959770990F990F990FF9
:1006C000877C892B26FB222720F9806420FB87F971
:1006D000898361E0CE0101960E94260401C080E07A
:1006E0000F90DF91CF910895CF93DF931F92CDB7F5
:1006F000DEB70097F1F0FC012081922F977089817D
:10070000887F892B922F9695969596959770990F3D
:10071000990F990F877C892B26FB222720F980646B
:1007200020FB87F9898360E0CE0101960E942604B0
:1007300001C080E00F90DF91CF910895009719F0EC
:100740000E94E503089580E00895EF92FF920F93D1
:100750001F93CF93DF931F92CDB7DEB7009729F198
:100760006115710521F17B018C011982BE016F5F5A
:100770007F4F0E946604F8018281811109C089813E
:10078000813019F4F70180830EC0F70110820BC08D
:10079000813049F48981813019F4F701108203C056
:1007A00081E0F701808381E003C080E001C080E048
:1007B0000F90DF91CF911F910F91FF90EF900895CF
:1007C0000E94A40280E090E00895FC01892BD1F101
:1007D00020812695269526952770808186FB99276E
:1007E00090F986FF18C0913079F5E82FE770F0E0B6
:1007F000EE0FFF1FEA5DFE4F0190F081E02D30818A
:1008000081E090E002C0880F991F2A95E2F7832BC0
:10081000808381E00895E081E770F0E0EE0FFF1F34
:10082000EA5DFE4F0190F081E02D308181E090E0A3
:1008300002C0880F991F2A95E2F780958323808351
:1008400081E0089580E0089580E008950097D1F157
:10085000DC012C912695269526952770662319F0A4
:100860006130C9F031C0DC01EC91E770F0E0EE0FCF
:10087000FF1FE25EFE4F0190F081E02D308181E0AC
:1008800090E002C0880F991F2A95E2F78095832394
:10089000808381E00895DC01EC91E770F0E0EE0FD9
:1008A000FF1FE25EFE4F0190F081E02D308181E07C
:1008B00090E002C0880F991F2A95E2F7832B80836E
:1008C00081E0089580E0089580E008950097F9F0B0
:1008D00061157105F1F0DC012C9126952695269580
:1008E0002770EC91E770F0E0EE0FFF1FEA5EFE4F1D
:1008F0000190F081E02D808190E002C09595879570
:100900002A95E2F78170FB01808381E0089580E001
:10091000089580E00895CF93DF93009759F0EC019C
:100920000E94E503688167FB662760F9CE010E949B
:10093000260401C080E0DF91CF910895009731F047
:10094000909335018093340181E0089580E008950B
:10095000009731F0909333018093320181E0089544
:1009600080E00895009731F0909331018093300139
:1009700081E0089580E00895009709F489C0FC01A2
:1009800082818130C9F120F0823009F468C082C0D0
:10099000838181110AC00E94E4058BB780648BBFFC
:1009A00085B78C7F85BF81E00895813059F40E941E
:1009B000E4058BB780648BBF85B78D7F816085BF71
:1009C00081E00895823059F40E94E4058BB7806479
:1009D0008BBF85B782608E7F85BF81E008958330AD
:1009E00009F05AC00E94E4058BB780648BBF85B7BD
:1009F000836085BF81E00895838181110AC00E94D0
:100A0000E4058BB780688BBF85B7837F85BF81E0A6
:100A10000895813059F40E94E4058BB780688BBF3C
:100A200085B7877F846085BF81E00895823059F45F
:100A30000E94E4058BB780688BBF85B788608B7F89
:100A400085BF81E00895833049F50E94E4058BB7A6
:100A500080688BBF85B78C6085BF81E008958381F6
:100A6000823051F40E94E4058BB780628BBF84B75B
:100A70008F7B84BF81E00895833091F40E94E40568
:100A80008BB780628BBF84B7806484BF81E0089598
:100A900080E0089580E0089580E0089580E0089562
:100AA00080E008950097B9F0FC018281813049F01F
:100AB00018F0823059F011C0808191810E949E040B
:100AC0000895808191810E94A80408958081918178
:100AD0000E94B204089580E0089580E008951F9276
:100AE0000F920FB60F9211242F933F934F935F9362
:100AF0006F937F938F939F93AF93BF93EF93FF93E6
:100B0000E0913401F09135010995FF91EF91BF918A
:100B1000AF919F918F917F916F915F914F913F9195
:100B20002F910F900FBE0F901F9018951F920F924C
:100B30000FB60F9211242F933F934F935F936F93B0
:100B40007F938F939F93AF93BF93EF93FF93E09126
:100B50003201F09133010995FF91EF91BF91AF916F
:100B60009F918F917F916F915F914F913F912F91C5
:100B70000F900FBE0F901F9018951F920F920FB6F7
:100B80000F9211242F933F934F935F936F937F9313
:100B90008F939F93AF93BF93EF93FF93E0913001B7
:100BA000F09131010995FF91EF91BF91AF919F9124
:100BB0008F917F916F915F914F913F912F910F9006
:100BC0000FBE0F901F9018958FB780688FBF089544
:100BD000009731F090934101809340018BE008959C
:100BE0008CE00895009731F090933F0180933E018F
:100BF0008DE008958EE00895CF93DF93DC01892B7B
:100C000009F4AAC08C91813089F028F0823041F03B
:100C1000833091F016C083B7877B83BF83E012C017
:100C200083B7877F806483BF83E00CC083B788600D
:100C30008F7B83BF83E006C083B7886483BF83E074
:100C400001C084E08330D1F51296EC9112974E2FBB
:100C500050E04830510588F5FA01EE5BFF4F0C94E7
:100C6000EC0783B78F7C83BF85E028C083B78F7D77
:100C7000806183BF85E022C083B780628F7E83BF9F
:100C800085E01CC083B7806383BF85E017C083B74E
:100C900080628F7E83BF85E011C083B7806383BF8E
:100CA00085E00CC083B780628F7E83BF85E006C07D
:100CB00083B7806383BF85E001C086E0ED018530A6
:100CC00079F58B81882319F08130A9F024C08881BF
:100CD000882319F0813041F020C00E94E40589B7D3
:100CE000816089BF87E01CC00E94E40589B78260EB
:100CF00089BF87E015C08881882319F0813031F0E1
:100D00000EC089B78E7F89BF87E00AC089B78D7F03
:100D100089BF87E005C088E003C088E001C088E0A3
:100D2000873089F48881882319F0813031F00AC036
:100D30008C819D810E94E80506C08E819F810E9462
:100D4000F20501C08FE08B3011F08D3031F483B7A4
:100D5000887F83BF80E001C082E0DF91CF9108955A
:100D6000009709F441C0DC011196EC918E2F90E0C0
:100D700088309105A8F5FC01E65BFF4F0C94EC0769
:100D800083B7887F83BF89E02CC083B7897F816068
:100D900083BF89E026C083B78B7F82608E7F83BF4D
:100DA00089E01FC083B78B7F836083BF89E019C050
:100DB00083B784608C7F83BF89E013C083B784606E
:100DC0008D7F816083BF89E00CC083B786608E7F92
:100DD00083BF89E006C083B7876083BF89E001C015
:100DE0008AE0893021F402C082E0089580E008950D
:100DF00083B7887F83BF80E008950F931F93DC0142
:100E0000CB01880F991FAA1FBB1F880F991FAA1F0C
:100E1000BB1F880F991FAA1FBB1F8C019D01000FCC
:100E2000111F221F331F000F111F221F331F800F9E
:100E3000911FA21FB31FAC01BD01440F551F661FB8
:100E4000771F440F551F661F771F840F951FA61F1E
:100E5000B71FAC01BD01440F551F661F771F440F1C
:100E6000551F661F771F840F951FA61FB71F492F99
:100E70005A2F6B2F77274093420150934301609381
:100E80004401709345019927AA27BB2740E051E010
:100E900060E070E08A019B01081B190B2A0B3B0BD9
:100EA00002BF8091420190914301A0914401B09111
:100EB00045010196A11DB11D80934201909343010C
:100EC000A0934401B09345011F910F9108951F9283
:100ED0000F920FB60F9211242F933F934F935F936E
:100EE0006F937F938F939F93AF93BF93EF93FF93F2
:100EF0008091360190913701A0913801B09139016C
:100F0000409142015091430160914401709145012B
:100F100084179507A607B707E1F4E0914001F09127
:100F20004101099510923601109237011092380153
:100F30001092390181E090E0A0E0B0E080933A01A6
:100F400090933B01A0933C01B0933D010E94F806B1
:100F50000BC00196A11DB11D8093360190933701FE
:100F6000A0933801B0933901FF91EF91BF91AF91F8
:100F70009F918F917F916F915F914F913F912F91B1
:100F80000F900FBE0F901F9018951F920F920FB6E3
:100F90000F9211242F933F934F935F936F937F93FF
:100FA0008F939F93AF93BF93EF93FF93E0913E0195
:100FB000F0913F010995FF91EF91BF91AF919F9102
:100FC0008F917F916F915F914F913F912F910F90F2
:100FD0000FBE0F901F901895EE0FFF1F0590F49114
:080FE000E02D0994F894FFCF05
:100FE80000020000710000007400020322010139B0
:100FF80031292101010139003600330030003B005E
:0E1008003800350032003A0037003400310065
:00000001FF
