:020000040000FA
:10000000300300200D03000015030000170300005B
:10001000190300001B0300001D0300000000000086
:100020000000000000000000000000001F030000AE
:10003000210300000000000023030000250300004E
:100040009D040000E50400002D050000750500007A
:10005000BD0500003103000033030000350300003C
:1000600037030000390300003B0300003D0300009C
:100070003F0300004103000043030000450300006C
:1000800047030000490300004B0300004D0300003C
:100090004F0300005103000053030000550300000C
:1000A00057030000590300005B0300005D030000DC
:1000B0005F030000610300006303000065030000AC
:1000C00067030000690300006B0300006D0300007C
:1000D0006F0300007103000073030000750300004C
:1000E0007703000079030000000000007B0300009C
:1000F0007D0300007F0300008103000083030000F4
:100100008503000087030000890300008B030000C3
:1001100000000000000000008D0300008F030000BD
:100120009103000093030000950300009703000073
:10013000990300009B0300009D0300009F03000043
:1001400000000000000000000000000000000000AF
:10015000A1030000A3030000A5030000A703000003
:10016000000000000000000000000000000000008F
:10017000000000000000000000000000000000007F
:10018000000000000000000000000000000000006F
:10019000000000000000000000000000000000005F
:1001A000000000000000000000000000000000004F
:1001B000A9030000AB030000AD030000AF03000083
:1001C000B1030000B3030000B5030000B703000053
:1001D000B9030000BB030000BD030000BF03000023
:1001E000C1030000C3030000C503000000000000BD
:1001F00000000000C7030000C9030000CB0300009B
:10020000CD030000CF03000000000000000000004C
:10021000D1030000D3030000D5030000D703000082
:10022000D9030000DB030000DD030000DF03000052
:10023000E1030000E3030000E5030000E703000022
:10024000E9030000EB030000ED030000EF030000F2
:10025000F1030000F3030000F5030000F7030000C2
:10026000F9030000FB030000FD03000000F002F8AA
:1002700000F03CF80AA090E8000C82448344AAF104
:100280000107DA4501D100F031F8AFF2090EBAE802
:100290000F0013F0010F18BFFB1A43F001031847BA
:1002A000680E0000880E0000103A24BF78C878C19C
:1002B000FAD8520724BF30C830C144BF04680C606C
:1002C000704700000023002400250026103A28BFB4
:1002D00078C1FBD8520728BF30C148BF0B607047B8
:1002E0001FB500F0E7FE1FBD10B510BD00F09BF874
:1002F0001146FFF7F5FF00F0D7FE00F0B9F803B4A0
:10030000FFF7F2FF03BC00F0C1F800003F48804750
:100310003F480047FEE7FEE7FEE7FEE7FEE7FEE7B1
:10032000FEE7FEE7FEE7FEE7FEE7FEE7FEE7FEE7A5
:10033000FEE7FEE7FEE7FEE7FEE7FEE7FEE7FEE795
:10034000FEE7FEE7FEE7FEE7FEE7FEE7FEE7FEE785
:10035000FEE7FEE7FEE7FEE7FEE7FEE7FEE7FEE775
:10036000FEE7FEE7FEE7FEE7FEE7FEE7FEE7FEE765
:10037000FEE7FEE7FEE7FEE7FEE7FEE7FEE7FEE755
:10038000FEE7FEE7FEE7FEE7FEE7FEE7FEE7FEE745
:10039000FEE7FEE7FEE7FEE7FEE7FEE7FEE7FEE735
:1003A000FEE7FEE7FEE7FEE7FEE7FEE7FEE7FEE725
:1003B000FEE7FEE7FEE7FEE7FEE7FEE7FEE7FEE715
:1003C000FEE7FEE7FEE7FEE7FEE7FEE7FEE7FEE705
:1003D000FEE7FEE7FEE7FEE7FEE7FEE7FEE7FEE7F5
:1003E000FEE7FEE7FEE7FEE7FEE7FEE7FEE7FEE7E5
:1003F000FEE7FEE7FEE7FEE7FEE7FEE7FEE70000BA
:1004000004480549034A054B70470000C50E00002B
:100410006D02000030010020300300203001002078
:10042000704770477047754600F02CF8AE460500DF
:100430006946534620F00700854618B020B5FFF7FF
:10044000DFFFBDE820404FF000064FF000074FF0FF
:1004500000084FF0000B21F00701AC46ACE8C009E2
:10046000ACE8C009ACE8C009ACE8C0098D467047EB
:1004700010B50446AFF300802046BDE81040FFF7FA
:100480003EBF000000487047D000002001491820FE
:10049000ABBEFEE7260002007047000010B5002446
:1004A00016E00D480068E04000F0010070B10B4814
:1004B00050F8240050B10A4800680121A1400843C7
:1004C00007490860054951F824008047601CC4B200
:1004D000052CE6DB10BD0000144400401000002095
:1004E0001C54024010B5002416E00D480068E0409E
:1004F00000F0010070B10B4850F8240050B10A48D8
:1005000000680121A140084307490860054951F8E6
:1005100024008047601CC4B2052CE6DB10BD00003F
:1005200014540240300000201C54004010B5002438
:1005300016E00D480068E04000F0010070B10B4883
:1005400050F8240050B10A4800680121A140084336
:1005500007490860054951F824008047601CC4B26F
:10056000052CE6DB10BD00001454024050000020B2
:100570001C64004010B5002416E00D480068E040FF
:1005800000F0010070B10B4850F8240050B10A4847
:1005900000680121A140084307490860054951F856
:1005A00024008047601CC4B2052CE6DB10BD0000AF
:1005B00014540240700000201C74004010B5002448
:1005C00016E00D480068E04000F0010070B10B48F3
:1005D00050F8240050B10A4800680121A1400843A6
:1005E00007490860054951F824008047601CC4B2DF
:1005F000052CE6DB10BD00001454024090000020E2
:100600001C44024010B5042804DA4FF0402303EBE9
:10061000003303E0031F054C04EB0333D3F8FC3332
:10062000CB4003F00103137010BD000000400240F6
:1006300030B5012A1DD1042804DA4FF0402303EB22
:10064000003303E0031F1A4C04EB0333D3F8FC43DD
:1006500001238B401C43042804DA4FF0402303EBB2
:10066000003303E0031F124D05EB0333C3F8FC43D3
:100670001DE0E2B9042804DA4FF0402303EB003315
:1006800003E0031F0A4C04EB0333D3F8FC430123BC
:100690008B409C43042804DA4FF0402303EB0033E3
:1006A00003E0031F024D05EB0333C3F8FC4330BDE9
:1006B000004002403EB50446084A07CA8DE80700DC
:1006C000A0788DF8010020788DF8050060788DF80D
:1006D0000600684600F07AF83EBD0000D810000021
:1006E0003EB50446094A07CA8DE80700A0788DF890
:1006F000010020788DF8050060788DF8060061789B
:1007000020780022FFF794FF3EBD0000F0100000AB
:100710003EB50446094A07CA8DE80700A0788DF85F
:10072000010020788DF8050060788DF8060061786A
:1007300020780122FFF77CFF3EBD0000E41000009E
:100740003EB50446084A07CA8DE80700A0788DF830
:10075000030020788DF8050060788DF80600684663
:1007600000F034F83EBD0000C01000007FB5044624
:100770000D46154A07CA8DE80700A0788DF80300DA
:1007800020788DF8050060788DF806006178207873
:1007900003AAFFF737FFA07840B99DF80C000128A5
:1007A00001D128700EE0002028700BE0A07801280D
:1007B00008D19DF80C00012802D10020287001E02A
:1007C000012028707FBD0000CC10000070B50346EA
:1007D000002200BF6FE302EB420404EBC2041C449E
:1007E000607902EB420404EBC2041C44A179F94C89
:1007F0002468012585402C43F64D2C6002EB420411
:1008000004EBC2041C44A478012C72D1042804DA3D
:100810004FF0402404EB003403E0041FEE4D05EBE1
:100820000434D4F8005401248C402543042804DA0D
:100830004FF0402404EB003403E0041FE64E06EBC7
:100840000434C4F8005402EB420404EBC2041C4418
:100850006478012C1DD1042804DA4FF0402404EB05
:10086000003403E0041FDC4D05EB0434D4F8FC53E2
:1008700001248C402543042804DA4FF0402404EB83
:10088000003403E0041FD44E06EB0434C4F8FC53D8
:1008900023E002EB420404EBC2041C446478E4B994
:1008A000042804DA4FF0402404EB003403E0041F72
:1008B000C94D05EB0434D4F8FC5301248C40A54306
:1008C000042804DA4FF0402404EB003403E0041F52
:1008D000C14E06EB0434C4F8FC5302EB420404EBB3
:1008E000C2041C4424792CB1012C21D0022C5BD1F0
:1008F0003CE05BE0042804DA4FF0402404EB0034D1
:1009000003E0041FB44D05EB0434D4F80055012472
:100910008C402543042804DA4FF0402404EB0034D3
:1009200003E0041FAC4E06EB0434C4F800553CE071
:10093000042804DA4FF0402404EB003403E0041FE1
:10094000A54D05EB0434D4F8045501248C4025430F
:10095000042804DA4FF0402404EB003403E0041FC1
:100960009D4E06EB0434C4F804551EE0042804DA56
:100970004FF0402404EB003403E0041F964D05EBD8
:100980000434D4F8085501248C402543042804DAA3
:100990004FF0402404EB003403E0041F8E4E06EBBE
:1009A0000434C4F8085500E000BF00BF02EB420465
:1009B00004EBC2041C5D24B1012C5AD0022C6FD16F
:1009C000B0E0042804DA4FF0402404EB003403E0E4
:1009D000041F814D05EB0434D4F81C5501248C40D0
:1009E0002543042804DA4FF0402404EB003403E0EC
:1009F000041F794E06EB0434C4F81C55042804DAAD
:100A00004FF0402404EB003403E0041F724D05EB6B
:100A10000434D4F8205401248C40A543042804DA7B
:100A20004FF0402404EB003403E0041F6A4E06EB51
:100A30000434C4F82054042804DA4FF0402404EBB2
:100A4000003403E0041F644D05EB0434D4F828554A
:100A500001248C40A543042804DA4FF0402404EB21
:100A6000003403E0041F5C4E06EB0434C4F8285540
:100A7000B5E0042804DA4FF0402404EB003403E02E
:100A8000041F554D05EB0434D4F81C5501248C404B
:100A9000A543042805DA4FF0402404EB003404E0B9
:100AA0009CE0041F4C4E06EB0434C4F81C5504288B
:100AB00004DA4FF0402404EB003403E0041F464DF9
:100AC00005EB0434D4F8205401248C40A5430428B9
:100AD00004DA4FF0402404EB003403E0041F3E4EE0
:100AE00006EB0434C4F82054042804DA4FF0402400
:100AF00004EB003403E0041F374D05EB0434D4F855
:100B0000285501248C402543042804DA4FF0402462
:100B100004EB003403E0041F2F4E06EB0434C4F84A
:100B200028555CE0042804DA4FF0402404EB00343C
:100B300003E0041F284D05EB0434D4F81C550124B0
:100B40008C40A543042804DA4FF0402404EB003421
:100B500003E0041F204E06EB0434C4F81C5504289F
:100B600004DA4FF0402404EB003403E0041F1A4D74
:100B700005EB0434D4F8205401248C402543042888
:100B800004DA4FF0402404EB003403E0041F124E5B
:100B900006EB0434C4F82054042804DA4FF040244F
:100BA00004EB003403E0041F0B4D05EB0434D4F8D0
:100BB000285501248C40A543042804DA4FF0402432
:100BC00004EB003403E0041F034E06EB0434C4F8C6
:100BD000285504E008E60F400040024000BF00BF77
:100BE00002EB420404EBC2041C44E47824B1012C5F
:100BF00020D0022C5AD13BE0042804DA4FF04024E4
:100C000004EB003403E0041FAD4D05EB0434D4F8CD
:100C1000105501248C402543042804DA4FF0402469
:100C200004EB003403E0041FA54E06EB0434C4F8C3
:100C300010553CE0042804DA4FF0402404EB003463
:100C400003E0041F9E4D05EB0434D4F81455012431
:100C50008C402543042804DA4FF0402404EB003490
:100C600003E0041F964E06EB0434C4F814551EE04E
:100C7000042804DA4FF0402404EB003403E0041F9E
:100C80008F4D05EB0434D4F80C5501248C402543DA
:100C9000042804DA4FF0402404EB003403E0041F7E
:100CA000874E06EB0434C4F80C5500E000BF00BFCB
:100CB00002EB420404EBC2041C44E479012C71D120
:100CC00002EB420404EBC2041C44247A14B1012C4C
:100CD0003CD11DE0042804DA4FF0402404EB00343A
:100CE00003E0041F764D05EB0434D4F804540124CA
:100CF0008C40A543042804DA4FF0402404EB003470
:100D000003E0041F6E4E06EB0434C4F804541EE0E6
:100D1000042804DA4FF0402404EB003403E0041FFD
:100D2000674D05EB0434D4F8045401248C4025436A
:100D3000042804DA4FF0402404EB003403E0041FDD
:100D40005F4E06EB0434C4F8045400E000BF00BF5B
:100D500002EB420404EBC2041C44647A24B1012C6B
:100D600021D0022C5BD13CE0042804DA4FF040246F
:100D700004EB003403E0041F514D05EB0434D4F8B8
:100D80000C5401248C40A543042804DA4FF040247D
:100D900004EB003403E0041F494E06EB0434C4F8AE
:100DA0000C543DE085E0042804DA4FF0402404EBC5
:100DB000003403E0041F424D05EB0434D4F80C5416
:100DC00001248C402543042804DA4FF0402404EB2E
:100DD000003403E0041F3A4E06EB0434C4F80C540C
:100DE0001EE0042804DA4FF0402404EB003403E052
:100DF000041F334D05EB0434D4F8085401248C400F
:100E00002543042804DA4FF0402404EB003403E0C7
:100E1000041F2B4E06EB0434C4F8085400E000BF56
:100E200000BF02EB420404EBC2041C44A47A14B1D8
:100E3000012C3CD11DE0042804DA4FF0402404EBDF
:100E4000003403E0041F1E4D05EB0434D4F81054A5
:100E500001248C40A543042804DA4FF0402404EB1D
:100E6000003403E0041F164E06EB0434C4F810549B
:100E70001EE0042804DA4FF0402404EB003403E0C1
:100E8000041F0F4D05EB0434D4F8105401248C409A
:100E90002543042804DA4FF0402404EB003403E037
:100EA000041F074E06EB0434C4F8105400E000BFE2
:100EB00000BF501CC2B2012AFFF68DAC70BD00000D
:100EC000004002401B49096841F47001194A116051
:100ED00019491A4A11671A4911661A4911661A49BD
:100EE0001167002000E0401CB0F57A7FFBD3174962
:100EF000124A116616491167002000E0401CB0F547
:100F00007A7FFBD313490D4A116600BF0B49096D67
:100F100001F040014029F9D10F49084A11664FF00C
:100F2000C0711167002000E0401C42F2107188423D
:100F3000FAD3704788ED00E01028800700E00F40EA
:100F4000D13A8E07422D9E0100288001420D9E015C
:100F500000088001420DDE014205DE0110B50748A0
:100F6000FFF7A8FB0548C01CFFF7A4FB0348801D42
:100F7000FFF7A0FB0248FFF7E3FB10BD03000020D2
:100F8000000000201CB543494348FFF7EFFB4148F0
:100F90000078012803D100204049087060E03D48F6
:100FA000007800285CD13D480078002858D1012005
:100FB0003A4908703A48007840B93A48FFF7A8FB28
:100FC00037480078401C3649087049E034480078BA
:100FD00001280CD13348FFF783FB3248801DFFF70F
:100FE00097FB2F480078401C2D49087038E02C48AA
:100FF000007802280DD12B48801DFFF771FB29488E
:10100000C01CFFF785FB26480078401C2449087067
:1010100026E023480078032810D12248FFF778FB08
:101020002048C01CFFF774FB1E48801DFFF770FBB3
:101030001B480078401C1A49087011E018480078D5
:1010400004280DD11748FFF74BFB1648C01CFFF7CB
:1010500047FB1448801DFFF743FB00201049087030
:101060000020019010E00020009004E0BDF8000096
:10107000401C80B20090BDF800006428F6DBBDF88B
:101080000400401C80B20190BDF80400B0F57A7FE6
:10109000E9DB1CBD0C000020000000200E00002039
:1010A0000D00002003000020FFF758FF01E0FFF7CC
:1010B00069FFFCE74FF04070E1EE100A7047000056
:1010C000000000000100000000000000000000001F
:1010D000010000000000000000000101020000000B
:1010E00000000000000001010200000000000000FC
:1010F00000000101020000000000000000000101EA
:101100000200000000000000281100000000002084
:1011100010000000A802000038110000100000209C
:1011200020030000C40200000504000501000502C0
:081130000005030000000000AF
:040000050000026D88
:00000001FF
