S01900006C65645F73657175616E63655F76312E302E73726563BE
S11300000C942A000C943F000C943F000C943F0085
S11300100C943F000C943F000C943F000C943F0060
S11300200C943F000C943F000C943F000C943F0050
S11300300C943F000C943F000C943F000C943F0040
S11300400C943F000C943F000C943F000C943F0030
S11300500C943F0011241FBECFE5D8E0DEBFCDBF16
S113006010E0A0E6B0E0E8E3F5E002C005900D92F0
S1130070A038B107D9F70E94DC010C949A020C94C1
S11300800000CF93DF931F92CDB7DEB781E0898361
S113009086E690E00E941D0185E690E00E941D0125
S11300A084E690E00E941D0183E690E00E941D0119
S11300B080E690E00E949A0110E0BE016F5F7F4FDE
S11300C080E690E00E94A1018981882341F00BC061
S11300D0BE016F5F7F4F80E690E00E94A10189819D
S11300E08823B1F31F5F113089F486E690E00E9403
S11300F0460185E690E00E94700184E690E00E944B
S1130100700183E690E00E947001D7CF123089F429
S113011086E690E00E94460185E690E00E94460152
S113012084E690E00E94700183E690E00E947001F2
S1130130C4CF133089F486E690E00E94460185E638
S113014090E00E94460184E690E00E94460183E626
S113015090E00E947001B1CF143089F486E690E0FB
S11301600E94460185E690E00E94460184E690E004
S11301700E94460183E690E00E9446019ECF15301E
S113018089F486E690E00E94700185E690E00E9482
S1130190460184E690E00E94460183E690E00E94D6
S11301A046018BCF163089F486E690E00E947001F8
S11301B085E690E00E94700184E690E00E9446018A
S11301C083E690E00E94460178CF173089F486E6F2
S11301D090E00E94700185E690E00E94700184E640
S11301E090E00E94700183E690E00E94460165CF92
S11301F0183091F486E690E00E94700185E690E064
S11302000E94700184E690E00E94700183E690E011
S11302100E94700110E051CF86E690E00E947001C8
S113022085E690E00E94700184E690E00E947001EF
S113023083E690E00E94700140CFCF93DF931F923A
S1130240CDB7DEB70097E9F0FC012081922F9770BB
S11302508981887F892B922F96959695969597708C
S1130260990F990F990F877C892B26FB222720F958
S1130270806420FB87F98983CE0101960E9487025E
S113028001C080E00F90DF91CF910895CF93DF9369
S11302901F92CDB7DEB70097F1F0FC012081922FB9
S11302A097708981887F892B922F9695969596953C
S11302B09770990F990F990F877C892B26FB22271A
S11302C020F9806420FB87F9898361E0CE010196DF
S11302D00E94220201C080E00F90DF91CF91089527
S11302E0CF93DF931F92CDB7DEB70097F1F0FC01F7
S11302F02081922F97708981887F892B922F9695E0
S1130300969596959770990F990F990F877C892BDD
S113031026FB222720F9806420FB87F9898360E08B
S1130320CE0101960E94220201C080E00F90DF916D
S1130330CF910895009719F00E94E101089580E09B
S11303400895EF92FF920F931F93CF93DF931F9221
S1130350CDB7DEB7009729F16115710521F17B0155
S11303608C011982BE016F5F7F4F0E946202F80107
S11303708281811109C08981813019F4F701808358
S11303800EC0F70110820BC0813049F4898181309D
S113039019F4F701108203C081E0F701808381E042
S11303A003C080E001C080E00F90DF91CF911F91E6
S11303B00F91FF90EF9008950E94410080E090E03B
S11303C00895FC01892BD1F1208126952695269547
S11303D02770808186FB992790F986FF18C0913099
S11303E079F5E82FE770F0E0EE0FFF1FE958FF4FB3
S11303F00190F081E02D308181E090E002C0880F0F
S1130400991F2A95E2F7832B808381E00895E08188
S1130410E770F0E0EE0FFF1FE958FF4F0190F08105
S1130420E02D308181E090E002C0880F991F2A9569
S1130430E2F780958323808381E0089580E0089526
S113044080E008950097D1F1DC012C912695269542
S113045026952770662319F06130C9F031C0DC019C
S1130460EC91E770F0E0EE0FFF1FE159FF4F0190B0
S1130470F081E02D308181E090E002C0880F991F67
S11304802A95E2F780958323808381E00895DC0137
S1130490EC91E770F0E0EE0FFF1FE159FF4F019080
S11304A0F081E02D308181E090E002C0880F991F37
S11304B02A95E2F7832B808381E0089580E00895F4
S11304C080E008950097F9F061157105F1F0DC0101
S11304D02C912695269526952770EC91E770F0E0EF
S11304E0EE0FFF1FE959FF4F0190F081E02D80814D
S11304F090E002C0959587952A95E2F78170FB01FB
S1130500808381E0089580E0089580E00895CF938A
S1130510DF93009759F0EC010E94E101688167FBC9
S1130520662760F9CE010E94220201C080E0DF91BB
S10B0530CF910895F894FFCF68
S11305389101013931292139003600330030003B5B
S1130548003800350032003A00370034003100002A
S9030000FC
