:100000000C942A000C943F000C943F000C943F0089
:100010000C943F000C943F000C943F000C943F0064
:100020000C943F000C943F000C943F000C943F0054
:100030000C943F000C943F000C943F000C943F0044
:100040000C943F000C943F000C943F000C943F0034
:100050000C943F0011241FBECFE5D8E0DEBFCDBF1A
:1000600010E0A0E6B0E0E0E3F5E002C005900D92FC
:10007000A038B107D9F70E94DA010C9496020C94CB
:100080000000CF93DF931F92CDB7DEB781E0898365
:1000900086E690E00E941B0185E690E00E941B012D
:1000A00084E690E00E941B0183E690E00E941B0121
:1000B00080E690E00E94980110E0BE016F5F7F4FE4
:1000C00080E690E00E949F01898181110AC02FE79C
:1000D00088E391E0215080409040E1F700C00000AB
:1000E0001F5F113089F486E690E00E94440185E6A6
:1000F00090E00E946E0184E690E00E946E0183E62B
:1001000090E00E946E01D9CF123089F486E690E02B
:100110000E94440185E690E00E94440184E690E05C
:100120000E946E0183E690E00E946E01C6CF1330FC
:1001300089F486E690E00E94440185E690E00E9402
:10014000440184E690E00E94440183E690E00E942E
:100150006E01B3CF143089F486E690E00E9444012A
:1001600085E690E00E94440184E690E00E9444010C
:1001700083E690E00E944401A0CF153089F486E622
:1001800090E00E946E0185E690E00E94440184E6C2
:1001900090E00E94440183E690E00E9444018DCFEC
:1001A000163089F486E690E00E946E0185E690E0C4
:1001B0000E946E0184E690E00E94440183E690E094
:1001C0000E9444017ACF173089F486E690E00E94BD
:1001D0006E0185E690E00E946E0184E690E00E9448
:1001E0006E0183E690E00E94440167CF183091F4DD
:1001F00086E690E00E946E0185E690E00E946E0126
:1002000084E690E00E946E0183E690E00E946E0119
:1002100010E053CF86E690E00E946E0185E690E004
:100220000E946E0184E690E00E946E0183E690E0F9
:100230000E946E0142CFCF93DF931F92CDB7DEB7FE
:100240000097E9F0FC012081922F97708981887FC7
:10025000892B922F9695969596959770990F990F51
:10026000990F877C892B26FB222720F9806420FBAD
:1002700087F98983CE0101960E94830201C080E044
:100280000F90DF91CF910895CF93DF931F92CDB759
:10029000DEB70097F1F0FC012081922F97708981E1
:1002A000887F892B922F9695969596959770990FA2
:1002B000990F990F877C892B26FB222720F98064D0
:1002C00020FB87F9898361E0CE0101960E941E021E
:1002D00001C080E00F90DF91CF910895CF93DF931D
:1002E0001F92CDB7DEB70097F1F0FC012081922F6D
:1002F00097708981887F892B922F969596959695F0
:100300009770990F990F990F877C892B26FB2227CD
:1003100020F9806420FB87F9898360E0CE01019693
:100320000E941E0201C080E00F90DF91CF910895DE
:10033000009719F00E94DD01089580E00895EF9282
:10034000FF920F931F93CF93DF931F92CDB7DEB72A
:10035000009729F16115710521F17B018C0119824A
:10036000BE016F5F7F4F0E945E02F80182818111A2
:1003700009C08981813019F4F70180830EC0F7012B
:1003800010820BC0813049F48981813019F4F70162
:10039000108203C081E0F701808381E003C080E028
:1003A00001C080E00F90DF91CF911F910F91FF90DE
:1003B000EF9008950E9441000895FC01892BD1F12E
:1003C00020812695269526952770808186FB992782
:1003D00090F986FF18C0913079F5E82FE770F0E0CA
:1003E000EE0FFF1FE958FF4F0190F081E02D3081A3
:1003F00081E090E002C0880F991F2A95E2F7832BD5
:10040000808381E00895E081E770F0E0EE0FFF1F48
:10041000E958FF4F0190F081E02D308181E090E0BC
:1004200002C0880F991F2A95E2F780958323808365
:1004300081E0089580E0089580E008950097D1F16B
:10044000DC012C912695269526952770662319F0B8
:100450006130C9F031C0DC01EC91E770F0E0EE0FE3
:10046000FF1FE159FF4F0190F081E02D308181E0C5
:1004700090E002C0880F991F2A95E2F780958323A8
:10048000808381E00895DC01EC91E770F0E0EE0FED
:10049000FF1FE159FF4F0190F081E02D308181E095
:1004A00090E002C0880F991F2A95E2F7832B808382
:1004B00081E0089580E0089580E008950097F9F0C4
:1004C00061157105F1F0DC012C9126952695269594
:1004D0002770EC91E770F0E0EE0FFF1FE959FF4F36
:1004E0000190F081E02D808190E002C09595879584
:1004F0002A95E2F78170FB01808381E0089580E016
:10050000089580E00895CF93DF93009759F0EC01B0
:100510000E94DD01688167FB662760F9CE010E94B9
:100520001E0201C080E0DF91CF910895F894FFCFC3
:100530008001001A120A0239003600330030003BF5
:10054000003800350032003A003700340031000036
:00000001FF
