:100000000C942A000C945A090C9487090C94B40996
:100010000C9447000C9447000C9447000C94470044
:100020000C9447000C9447000C9447000C94470034
:100030000C9447000C9447000C9447000C94470024
:100040000C9447000C9447000C9447000C94470014
:100050000C94470011241FBECFE5D8E0DEBFCDBF12
:1000600011E0A0E6B0E0E2E5F1E202C005900D92F9
:10007000A439B107D9F711E0A4E9B1E001C01D929C
:10008000AB39B107E1F70E9467100C94A7100C94EC
:100090000000EF92FF920F931F937B018C0120E0F1
:1000A00030E040E05FE40E94C50388238CF0C80183
:1000B000B70120E030E040E05FE40E94C1010E940F
:1000C000F5039B01AC01205030404040504806C031
:1000D000C801B7010E94F5039B01AC01B901CA0137
:1000E0001F910F91FF90EF900895A0E0B0E0EBE733
:1000F000F0E00C947010DC012B01FA019C9192301D
:1001000008F439C1EB018881823008F433C194309E
:1001100069F4843009F02FC111969C91119789815F
:10012000981709F428C1A0E6B0E025C1843009F48D
:1001300021C18230A9F4923009F01DC19A01AD01AC
:1001400088E0EA010990AE01E90109929E0181501F
:10015000C1F7E201898111969C918923818308C1AD
:10016000923009F407C112962D903C901397EB0141
:100170008A819B811496AD90BD90CD90DC901797AD
:10018000EC80FD800E811F819101281B390BB90184
:1001900037FF04C066277727621B730B6032710537
:1001A0000CF061C0121613066CF537014801062EDB
:1001B00004C096948794779467940A94D2F721E0C8
:1001C00030E040E050E004C0220F331F441F551FB1
:1001D0006A95D2F721503040404050402E213F21B7
:1001E00040235123211531054105510521F021E01E
:1001F00030E040E050E079018A01E628F72808293C
:1002000019293CC0232BD1F1260E371E350146019A
:10021000062E04C096948794779467940A94D2F734
:1002200021E030E040E050E004C0220F331F441FC3
:10023000551F6A95D2F721503040404050402A2146
:100240003B214C215D21211531054105510521F04E
:1002500021E030E040E050E059016A01A628B728CB
:10026000C828D9280BC0821593052CF01C01AA249C
:10027000BB24650103C0EE24FF24870111969C91E5
:10028000D20111968C91981709F445C0992339F041
:10029000A80197012A193B094C095D0906C0A6016E
:1002A00095012E193F09400B510B57FD08C01182D3
:1002B0003382228224833583468357831DC081E0A5
:1002C00081833382228288279927DC01821B930B4A
:1002D000A40BB50B84839583A683B7830DC0220F2F
:1002E000331F441F551F24833583468357838281E0
:1002F000938101979383828324813581468157813D
:10030000DA01C9010197A109B1098F5F9F4FAF4F72
:10031000BF4328F30BC0918333822282EA0CFB1C7B
:100320000C1D1D1DE482F5820683178383E0808304
:10033000248135814681578157FF1AC0C901AA27F8
:1003400097FDA095BA2F81709070A070B0705695EF
:10035000479537952795822B932BA42BB52B848318
:100360009583A683B7838281938101969383828349
:10037000DF0101C0D201CD01CDB7DEB7E2E10C94BF
:100380008C10A0E2B0E0E7ECF1E00C947C10698303
:100390007A838B839C832D833E834F835887E9E048
:1003A000EE2EF12CEC0EFD1ECE010196B7010E943F
:1003B000E6058E010F5E1F4FCE010596B8010E9423
:1003C000E6058A8991E089278A8BC701B801AE01C9
:1003D000475E5F4F0E9475000E941105A096E6E0FF
:1003E0000C949810A0E2B0E0E8EFF1E00C947C10DF
:1003F00069837A838B839C832D833E834F835887C5
:10040000F9E0EF2EF12CEC0EFD1ECE010196B701A6
:100410000E94E6058E010F5E1F4FCE010596B801C2
:100420000E94E605C701B801AE01475E5F4F0E941A
:1004300075000E941105A096E6E00C949810A0E2C9
:10044000B0E0E5E2F2E00C94701069837A838B836C
:100450009C832D833E834F835887CE010196BE0136
:10046000675F7F4F0E94E605CE010596BE016F5E75
:100470007F4F0E94E6059985923088F08989823005
:10048000C8F0943019F4823051F404C0843029F457
:10049000923081F480E690E0C6C0923049F420E0CA
:1004A0009A858A89981321E02A87CE010996BBC0D4
:1004B000823049F420E09A858A89981321E02A8BBA
:1004C000CE014196B0C02D843E844F8458886D88FB
:1004D0007E888F88988CEE24FF248701AA24BB2471
:1004E000650140E050E060E070E0E0E0F0E0C10174
:1004F00081709070892BE9F0E60CF71C081D191D1E
:100500009A01AB012A0D3B1D4C1D5D1D80E090E062
:10051000A0E0B0E0E614F7040805190520F481E036
:1005200090E0A0E0B0E0BA01A901480F591F6A1F8E
:100530007B1FAA0CBB1CCC1CDD1C97FE08C081E0F5
:1005400090E0A0E0B0E0A82AB92ACA2ADB2A3196B6
:10055000E032F10549F0660C771C881C991C569412
:10056000479437942794C3CFFA85EA892B893C892D
:100570008B859C85280F391F2E5F3F4F17C0CA01FE
:1005800081709070892B61F016950795F794E79428
:1005900080E090E0A0E0B0E8E82AF92A0A2B1B2BC3
:1005A00076956795579547952F5F3F4F77FDE7CF36
:1005B0000CC0440F551F661F771F17FD4160EE0CDE
:1005C000FF1C001F111F21503040403090E05907A0
:1005D00090E0690790E4790760F32B8F3C8FDB0193
:1005E000CA018F779070A070B07080349105A1051A
:1005F000B10561F447FD0AC0E114F10401051105DC
:1006000029F0405C5F4F6F4F7F4F40781A8EFE1786
:1006100011F081E08A8F4D8F5E8F6F8F78A383E01A
:10062000898FCE0149960E941105A096E2E10C94B3
:100630008C10A8E1B0E0EFE1F3E00C94781069834E
:100640007A838B839C832D833E834F835887B9E0C5
:10065000EB2EF12CEC0EFD1ECE010196B7010E948F
:10066000E6058E010F5E1F4FCE010596B8010E9470
:10067000E6052985223008F47EC03989323010F42D
:10068000B8017CC08A859A8989278A87243011F02D
:10069000223031F4231709F06EC060E670E06EC0BE
:1006A000343039F41D861E861F86188A1C861B86E8
:1006B00004C0323021F484E08987B7015FC02B8504
:1006C0003C858B899C89281B390B3C872B87ED84C3
:1006D000FE840F851889AD88BE88CF88D88CEA142F
:1006E000FB040C051D0540F4EE0CFF1C001F111F40
:1006F000215030403C872B8720E030E040E050E044
:1007000080E090E0A0E0B0E460E070E0EA14FB0478
:100710000C051D0540F0282B392B4A2B5B2BEA18C2
:10072000FB080C091D09B695A79597958795EE0CC2
:10073000FF1C001F111F6F5F7F4F6F31710531F775
:10074000DA01C9018F779070A070B0708034910584
:10075000A105B10561F427FD0AC0E114F10401050A
:10076000110529F0205C3F4F4F4F5F4F20782D87B8
:100770003E874F87588BBE01675F7F4FCB010E943A
:1007800011056896EAE00C949410A8E1B0E0EBEC57
:10079000F3E00C947C1069837A838B839C832D8394
:1007A0003E834F83588789E0E82EF12CEC0EFD1E26
:1007B000CE010196B7010E94E6058E010F5E1F4F24
:1007C000CE010596B8010E94E6058985823040F089
:1007D0008989823028F0C701B8010E945E0601C0F5
:1007E0008FEF6896E6E00C949810ACE0B0E0EBEF89
:1007F000F3E00C94801069837A838B839C83CE0111
:100800000196BE016B5F7F4F0E94E6058D818230AD
:1008100061F1823050F1843021F48E81882351F1CE
:100820002EC02F81388537FD20C06E812F313105D4
:100830001CF06623F9F023C08EE190E0821B930B3D
:1008400029853A854B855C8504C056954795379533
:1008500027958A95D2F76623B1F05095409530954B
:1008600021953F4F4F4F5F4F0EC020E030E040E0FA
:1008700050E009C02FEF3FEF4FEF5FE704C020E0EB
:1008800030E040E050E8B901CA012C96E2E00C9457
:100890009C10A8E0B0E0EFE4F4E00C9478107B0149
:1008A0008C01611571058105910519F482E0898338
:1008B00060C083E089838EE1C82ED12CDC82CB829C
:1008C000ED82FE820F831887C801B7010E94C2041F
:1008D000FC013197F7FF3BC0222733272E1B3F0B2C
:1008E00057016801022E04C0D694C794B794A79408
:1008F0000A94D2F740E050E060E070E081E090E0E0
:10090000A0E0B0E004C0880F991FAA1FBB1F2A9562
:10091000D2F70197A109B1098E219F21A023B1230C
:100920000097A105B10521F041E050E060E070E0E2
:100930004A295B296C297D294D835E836F837887E3
:100940008EE190E08E1B9F0B9C838B8312C03097AF
:1009500081F00E2E04C0EE0CFF1C001F111F0A9424
:10096000D2F7ED82FE820F831887CE1ADF0ADC826F
:10097000CB821A82CE0101960E9411052896EAE0E8
:100980000C949410EF92FF920F931F937B018C01B4
:1009900080E0E81680E0F80681E0080780E01807AC
:1009A00088F48FEFE816F1040105110531F028F005
:1009B00088E090E0A0E0B0E017C080E090E0A0E028
:1009C000B0E012C080E0E81680E0F80680E008079A
:1009D00081E0180728F088E190E0A0E0B0E004C0D2
:1009E00080E190E0A0E0B0E020E230E040E050E0C4
:1009F000281B390B4A0B5B0B04C016950795F7941F
:100A0000E7948A95D2F7F701E859FF4F8081281BB8
:100A1000310941095109C9011F910F91FF90EF90D0
:100A20000895DF92EF92FF920F931F93FC01E480F1
:100A3000F58006811781D1808081823048F480E082
:100A400090E0A0E1B0E0E82AF92A0A2B1B2BA5C010
:100A5000843009F49FC0823021F4EE24FF24870102
:100A600005C0E114F1040105110519F4E0E0F0E01E
:100A700096C0628173819FEF623879070CF05BC08A
:100A800022E83FEF261B370B2A3131052CF020E0FE
:100A900030E040E050E02AC0B801A701022E04C0B7
:100AA00076956795579547950A94D2F781E090E03F
:100AB000A0E0B0E004C0880F991FAA1FBB1F2A95B1
:100AC000D2F70197A109B1098E219F21A023B1235B
:100AD0000097A105B10521F081E090E0A0E0B0E031
:100AE0009A01AB01282B392B4A2B5B2BDA01C90168
:100AF0008F779070A070B07080349105A105B1051A
:100B000039F427FF09C0205C3F4F4F4F5F4F04C0AF
:100B1000215C3F4F4F4F5F4FE0E0F0E02030A0E01E
:100B20003A07A0E04A07A0E45A0710F0E1E0F0E03D
:100B300079018A0127C06038710564F5FB01E1582D
:100B4000FF4FD801C7018F779070A070B0708034CC
:100B50009105A105B10539F4E7FE0DC080E490E0F0
:100B6000A0E0B0E004C08FE390E0A0E0B0E0E80EC9
:100B7000F91E0A1F1B1F17FF05C016950795F7944E
:100B8000E794319687E016950795F794E7948A9550
:100B9000D1F705C0EE24FF248701EFEFF0E06E2FC0
:100BA000679566276795902F9F77D794DD24D79414
:100BB0008E2F8695492F462B582F5D29B701CA01E4
:100BC0001F910F91FF90EF90DF900895FC01DB01E2
:100BD000408151812281622F6F7770E0221F22278E
:100BE000221F9381892F880F822B282F30E0991F95
:100BF0009927991F11969C93119721153105A9F5F5
:100C0000411551056105710511F482E037C082E894
:100C10009FEF13969C938E9312979A01AB0167E016
:100C2000220F331F441F551F6A95D1F783E08C9321
:100C30000DC0220F331F441F551F12968D919C919A
:100C40001397019713969C938E931297203080E010
:100C5000380780E0480780E4580758F314962D932E
:100C60003D934D935C93179708952F3F310579F489
:100C7000411551056105710519F484E08C930895BF
:100C800064FF03C081E08C9312C01C9210C02F57E8
:100C9000304013963C932E93129783E08C9387E019
:100CA000440F551F661F771F8A95D1F770641496FD
:100CB0004D935D936D937C93179708951F93DC017B
:100CC000FB019C91923008F447C08081823008F487
:100CD00043C0943051F411961C91843099F5818170
:100CE000682F70E0611B71093FC0843021F09230A1
:100CF00031F48230B9F18181882389F12DC01196B8
:100D00001C9111978230F1F081811817D9F4129655
:100D10002D913C911397828193818217930794F0D0
:100D200028173907BCF014968D919D910D90BC91B8
:100D3000A02D2481358146815781281739074A071C
:100D40005B0718F4112341F00AC082179307A40728
:100D5000B50740F4112319F061E070E005C06FEFB2
:100D60007FEF02C060E070E0CB011F910895DF9338
:100D7000CF9300D000D0CDB7DEB79C838B83EFE458
:100D8000F0E01082EEE4F0E083E080838B819C81D0
:100D9000CC01A0E0B0E0BC01CD010E944904DC011F
:100DA000CB01BC01CD0120E030E04AE754E40E94D1
:100DB0001903DC01CB01BC01CD0120E034E244EF9A
:100DC00057E40E941F02DC01CB01BC01CD010E944F
:100DD0004900DC01CB019A838983ECE4F0E01182C5
:100DE0001082ECE4F0E02081318189819A8128171A
:100DF0003907B8F3EEE4F0E010820F900F900F90F7
:100E00000F90CF91DF910895DF93CF93CDB7DEB7E9
:100E1000AFE5B0E0EFE5F0E0808180688C93CF91A2
:100E2000DF910895DF93CF9300D000D00F92CDB71C
:100E3000DEB79B838A8319828A819B81009711F494
:100E4000198245C1EA81FB818281282F30E03D83F0
:100E50002C838C819D818130910509F489C02C817E
:100E60003D812230310509F401C18C819D810097BB
:100E700009F02DC1EA81FB8183818823D1F40E948E
:100E80000407ABE5B0E0EBE5F0E0808180648C9393
:100E9000A5E5B0E0E5E5F0E080818D7F8C93A5E5E8
:100EA000B0E0E5E5F0E080818E7F8C9381E089837E
:100EB0000EC1EA81FB8183818130D1F40E94040755
:100EC000ABE5B0E0EBE5F0E0808180648C93A5E5D4
:100ED000B0E0E5E5F0E080818D7F8C93A5E5B0E0A2
:100EE000E5E5F0E0808181608C9381E08983EFC04B
:100EF000EA81FB8183818230D1F40E940407ABE553
:100F0000B0E0EBE5F0E0808180648C93A5E5B0E093
:100F1000E5E5F0E0808182608C93A5E5B0E0E5E551
:100F2000F0E080818E7F8C9381E08983D0C0EA815C
:100F3000FB8183818330D1F40E940407ABE5B0E0EC
:100F4000EBE5F0E0808180648C93A5E5B0E0E5E519
:100F5000F0E0808182608C93A5E5B0E0E5E5F0E00B
:100F6000808181608C9381E08983B1C01982AFC098
:100F7000EA81FB8183818823D1F40E940407ABE5D9
:100F8000B0E0EBE5F0E0808180688C93A5E5B0E00F
:100F9000E5E5F0E08081877F8C93A5E5B0E0E5E5AD
:100FA000F0E080818B7F8C9381E0898390C0EA811F
:100FB000FB8183818130D1F40E940407ABE5B0E06E
:100FC000EBE5F0E0808180688C93A5E5B0E0E5E595
:100FD000F0E08081877F8C93A5E5B0E0E5E5F0E067
:100FE000808184608C9381E0898371C0EA81FB8178
:100FF00083818230D1F40E940407ABE5B0E0EBE5D9
:10100000F0E0808180688C93A5E5B0E0E5E5F0E054
:10101000808188608C93A5E5B0E0E5E5F0E0808113
:101020008B7F8C9381E0898352C0EA81FB8183812D
:101030008330D1F40E940407ABE5B0E0EBE5F0E0CB
:10104000808180688C93A5E5B0E0E5E5F0E08081E3
:1010500088608C93A5E5B0E0E5E5F0E080818460F0
:101060008C9381E0898333C0198231C0EA81FB818E
:101070008381823099F40E940407ABE5B0E0EBE590
:10108000F0E0808180628C93A4E5B0E0E4E5F0E0DC
:1010900080818F7B8C9381E0898319C0EA81FB81F9
:1010A0008381833099F40E940407ABE5B0E0EBE55F
:1010B000F0E0808180628C93A4E5B0E0E4E5F0E0AC
:1010C000808180648C9381E0898301C01982898149
:1010D0000F900F900F900F900F90CF91DF91089588
:1010E000DF93CF9300D000D00F92CDB7DEB79B83B4
:1010F0008A8319828A819B81009711F4198232C0F8
:10110000EA81FB818281282F30E03D832C838C8112
:101110009D818130910599F02C813D8122303105EE
:10112000C1F08C819D810097E9F4ABE5B0E0EBE57F
:10113000F0E080818F7B8C9381E0898313C0ABE5E5
:10114000B0E0EBE5F0E080818F778C9381E08983DC
:1011500009C0ABE5B0E0EBE5F0E080818F778C93E0
:1011600081E0898389810F900F900F900F900F90ED
:10117000CF91DF910895DF93CF9300D00F92CDB739
:10118000DEB79B838A8319828A819B81009711F441
:10119000198208C08A819B81909395018093940164
:1011A00081E0898389810F900F900F90CF91DF911B
:1011B0000895DF93CF9300D00F92CDB7DEB79B8316
:1011C0008A8319828A819B81009711F4198208C051
:1011D0008A819B81909397018093960181E0898316
:1011E00089810F900F900F90CF91DF910895DF9339
:1011F000CF9300D00F92CDB7DEB79B838A8319823D
:101200008A819B81009711F4198208C08A819B8191
:10121000909399018093980181E0898389810F904F
:101220000F900F90CF91DF910895DF93CF9300D06F
:1012300000D00F92CDB7DEB79B838A8319828A8153
:101240009B81009711F419822CC0EA81FB81828175
:10125000282F30E03D832C838C819D818130910546
:1012600089F02C813D8122303105A1F08C819D8156
:101270000097B9F4EA81FB81808191810E94BB08CB
:1012800089830FC0EA81FB81808191810E94D90806
:10129000898307C0EA81FB81808191810E94F708E0
:1012A000898389810F900F900F900F900F90CF91AD
:1012B000DF9108951F920F920FB60F9211242F9372
:1012C0003F934F935F936F937F938F939F93AF93CE
:1012D000BF93EF93FF93DF93CF93CDB7DEB7E0914A
:1012E0009401F09195010995CF91DF91FF91EF91D4
:1012F000BF91AF919F918F917F916F915F914F912E
:101300003F912F910F900FBE0F901F9018951F9235
:101310000F920FB60F9211242F933F934F935F9329
:101320006F937F938F939F93AF93BF93EF93FF93AD
:10133000DF93CF93CDB7DEB7E0919601F09197019F
:101340000995CF91DF91FF91EF91BF91AF919F915F
:101350008F917F916F915F914F913F912F910F905E
:101360000FBE0F901F9018951F920F920FB60F92FD
:1013700011242F933F934F935F936F937F938F939A
:101380009F93AF93BF93EF93FF93DF93CF93CDB72B
:10139000DEB7E0919801F09199010995CF91DF9125
:1013A000FF91EF91BF91AF919F918F917F916F913D
:1013B0005F914F913F912F910F900FBE0F901F9013
:1013C0001895DF93CF9300D000D00F92CDB7DEB742
:1013D0009B838A8319828A819B81009761F0EA81CD
:1013E000FB8180818695869586958770882F90E011
:1013F0008830910514F019827EC0EA81FB818081DA
:1014000082958695869583708170282F30E03D8384
:101410002C838C819D810097C9F12C813D812130E5
:10142000310509F067C0EA81FB8180818770882FD0
:1014300090E0880F991FFC01E859FE4FA081B1810F
:10144000EA81FB8180818770882F90E0880F991F47
:10145000FC01E859FE4F0190F081E02D8081482F7A
:10146000EA81FB8180818695869586958770282FF5
:1014700030E081E090E0022E02C0880F991F0A94AC
:10148000E2F7842B8C9381E0898335C0EA81FB816C
:1014900080818770882F90E0880F991FFC01E859A0
:1014A000FE4FA081B181EA81FB8180818770882F06
:1014B00090E0880F991FFC01E859FE4F0190F081E0
:1014C000E02D8081482FEA81FB8180818695869579
:1014D00086958770282F30E081E090E0022E02C0D0
:1014E000880F991F0A94E2F7809584238C9381E0FA
:1014F000898301C0198289810F900F900F900F90FE
:101500000F90CF91DF910895DF93CF9300D000D05B
:101510000F92CDB7DEB79B838A837D836C8319825C
:101520008A819B81009781F08C819D81009761F079
:10153000EA81FB8180818695869586958770882FC4
:1015400090E08830910514F0198227C0EA81FB8170
:1015500080818770882F90E0880F991FFC01E859DF
:10156000FE4F0190F081E02D8081282F30E0EA814C
:10157000FB8180818695869586958770882F90E07F
:10158000A90102C0559547958A95E2F7CA01817075
:10159000EC81FD81808381E0898389810F900F90A8
:1015A0000F900F900F90CF91DF910895DF93CF931D
:1015B00000D000D000D0CDB7DEB79B838A836C8388
:1015C00019828A819B81009761F0EA81FB81808189
:1015D0008695869586958770882F90E0883091054E
:1015E00014F0198277C08C81282F30E03E832D8340
:1015F0008D819E81009731F02D813E812130310512
:10160000A9F167C0EA81FB8180818770882F90E013
:10161000880F991FFC01E059FE4FA081B181EA813A
:10162000FB8180818770882F90E0880F991FFC01D3
:10163000E059FE4F0190F081E02D8081482FEA8132
:10164000FB8180818695869586958770282F30E06E
:1016500081E090E0022E02C0880F991F0A94E2F701
:10166000809584238C9381E0898334C0EA81FB8157
:1016700080818770882F90E0880F991FFC01E059C6
:10168000FE4FA081B181EA81FB8180818770882F24
:1016900090E0880F991FFC01E059FE4F0190F08106
:1016A000E02D8081482FEA81FB8180818695869597
:1016B00086958770282F30E081E090E0022E02C0EE
:1016C000880F991F0A94E2F7842B8C9381E0898319
:1016D00001C01982898126960FB6F894DEBF0FBE2D
:1016E000CDBFCF91DF910895DF93CF9300D000D08D
:1016F0000F92CDB7DEB79B838A837D836C8319827B
:101700008A819B81009781F08C819D81009761F097
:10171000EA81FB8180818695869586958770882FE2
:1017200090E08830910514F0198227C0EA81FB818E
:1017300080818770882F90E0880F991FFC01E858FE
:10174000FE4F0190F081E02D8081282F30E0EA816A
:10175000FB8180818695869586958770882F90E09D
:10176000A90102C0559547958A95E2F7CA01817093
:10177000EC81FD81808381E0898389810F900F90C6
:101780000F900F900F90CF91DF910895DF93CF933B
:1017900000D00F92CDB7DEB79B838A8319828A81EE
:1017A0009B81009761F0EA81FB8180818695869517
:1017B00086958770882F90E08730910514F0198204
:1017C00032C0EA81FB8180818770882F90E0880F8A
:1017D000991FFC01E059FE4FA081B181EA81FB8194
:1017E00080818770882F90E0880F991FFC01E05955
:1017F000FE4F0190F081E02D8081482FEA81FB812E
:1018000080818695869586958770282F30E081E0C7
:1018100090E0022E02C0880F991F0A94E2F78427F5
:101820008C9381E0898389810F900F900F90CF91E5
:10183000DF910895DF93CF9300D00F92CDB7DEB73D
:101840009B838A8319828A819B81009711F4198274
:1018500012C08A819B810E94E1098983EA81FB8110
:101860008081881F8827881F282F8A819B81622F6B
:101870000E94D60A898389810F900F900F90CF9193
:10188000DF910895DF93CF9300D00F92CDB7DEB7ED
:101890008A836B8319828A81853010F019820FC088
:1018A0008A81882F90E0880F991FFC01E859FE4F2C
:1018B0000190F081E02D8B81808381E08983898193
:1018C0000F900F900F90CF91DF910895DF93CF93FA
:1018D00000D000D0CDB7DEB78A837C836B831982BA
:1018E0008B819C81009719F08A81853010F01982D4
:1018F00011C08A81882F90E0880F991FFC01E85958
:10190000FE4F0190F081E02D8081EB81FC8180838E
:1019100081E0898389810F900F900F900F90CF9174
:10192000DF910895DF93CF9300D00F92CDB7DEB74C
:101930008A836B8319828A81853010F019820FC0E7
:101940008A81882F90E0880F991FFC01E059FE4F93
:101950000190F081E02D8B81808381E089838981F2
:101960000F900F900F90CF91DF910895DF93CF9359
:1019700000D000D0CDB7DEB78A837C836B83198219
:101980008B819C81009719F08A81853010F0198233
:1019900011C08A81882F90E0880F991FFC01E858B8
:1019A000FE4F0190F081E02D8081EB81FC818083EE
:1019B00081E0898389810F900F900F900F90CF91D4
:1019C000DF910895DF93CF9300D0CDB7DEB78A8340
:1019D00019828A81853010F019821AC08A81882F75
:1019E00090E0880F991FFC01E059FE4FA081B18162
:1019F0008A81882F90E0880F991FFC01E059FE4FE3
:101A00000190F081E02D808180958C9381E0898325
:101A100089810F900F90CF91DF910895DF93CF933D
:101A200000D00F92CDB7DEB79B838A8319828A815B
:101A30009B81009711F4198205C08A819B810E94C5
:101A4000E109898389810F900F900F90CF91DF91E9
:101A50000895DF93CF9300D000D000D0CDB7DEB78C
:101A60009C838B837E836D8319828B819C810097FD
:101A700021F08D819E81009711F419822DC01A8268
:101A80008B819C819E012E5F3F4FB9010E94740B98
:101A90008983EB81FC818281882361F48A81813092
:101AA00029F4ED81FE8181E0808314C0ED81FE8107
:101AB000108210C0EB81FC818281813059F48A81CF
:101AC000813021F4ED81FE81108204C0ED81FE8120
:101AD00081E0808381E08983898126960FB6F8941E
:101AE000DEBF0FBECDBFCF91DF910895DF93CF93BF
:101AF00000D000D0CDB7DEB79C838B8319828B8159
:101B00009C81009711F4198235C0EB81FC818081A2
:101B1000282F2770EB81FC818081982F96959695D0
:101B200096959770EB81FC818081382F32953695A0
:101B300036953370317027708A81887F822B8A8333
:101B4000892F8770982F990F990F990F8A81877C19
:101B5000892B8A838A8180648A83932F979599271A
:101B600097958A818F77892B8A83CE0102960E946E
:101B70001A0C898389810F900F900F900F90CF914D
:101B8000DF910895DF93CF9300D000D0CDB7DEB7BB
:101B90009C838B8319828B819C81009711F419821D
:101BA00036C0EB81FC818081282F2770EB81FC817E
:101BB0008081982F9695969596959770EB81FC81EC
:101BC0008081382F32953695369533703170277075
:101BD0008A81887F822B8A83892F8770982F990F1B
:101BE000990F990F8A81877C892B8A838A818064E7
:101BF0008A83932F9795992797958A818F77892B39
:101C00008A83CE01029661E00E94D60A8983898187
:101C10000F900F900F900F90CF91DF910895DF9369
:101C2000CF9300D000D0CDB7DEB79C838B831982D1
:101C30008B819C81009711F4198236C0EB81FC8165
:101C40008081282F2770EB81FC818081982F9695C9
:101C5000969596959770EB81FC818081382F32950F
:101C6000369536953370317027708A81887F822B44
:101C70008A83892F8770982F990F990F990F8A81DE
:101C8000877C892B8A838A8180648A83932F9795A6
:101C9000992797958A818F77892B8A83CE0102961F
:101CA00060E00E94D60A898389810F900F900F907F
:101CB0000F90CF91DF910895DF93CF9300D000D0A4
:101CC000CDB7DEB79C838B8319828B819C81009773
:101CD00011F4198235C0EB81FC818081282F277097
:101CE000EB81FC818081982F9695969596959770BB
:101CF000EB81FC818081382F329536953695337093
:101D0000317027708A81887F822B8A83892F877020
:101D1000982F990F990F990F8A81877C892B8A8335
:101D20008A8180648A83932F9795992797958A81D2
:101D30008F77892B8A83CE0102960E94C60B8983F6
:101D400089810F900F900F900F90CF91DF910895A0
:101D5000DF93CF9300D0CDB7DEB780E891E00E944B
:101D6000760D81E891E00E94760D82E891E00E9474
:101D7000760D83E891E00E94760D8AE891E00E945A
:101D800012078AE891E00E9415098EE891E00E940E
:101D900012078EE891E00E94150984E891E00E9404
:101DA0000E0D87E891E00E940E0D0E9404078091BD
:101DB0009201282F30E03A83298389819A818330E8
:101DC000910549F129813A81243031055CF48981FA
:101DD0009A818130910589F029813A81223031053B
:101DE00099F0E5CF89819A8184309105D9F02981D4
:101DF0003A8125303105E9F0DACF84E690E064E8F5
:101E000073E00E94200FD3CF88EC90E060E273E093
:101E10000E94200FCCCF8CE291E06CEB72E00E942C
:101E2000200FC5CF84EF91E064EF71E00E94200F96
:101E3000BECF80E293E068EC70E00E94200FB7CF45
:101E4000DF93CF9300D000D000D0CDB7DEB79A8318
:101E500089837C836B8380919A01282F30E03E83B5
:101E60002D838D819E818430910509F47AC02D8166
:101E70003E81253031058CF48D819E818230910523
:101E8000B1F12D813E81233031050CF049C08D81A7
:101E90009E8181309105D1F0ECC02D813E812630AC
:101EA000310509F4ACC08D819E81863091050CF41A
:101EB00081C02D813E812730310509F4B9C08D8163
:101EC0009E818830910509F4C4C0D3C080E891E0B8
:101ED0000E94C20D89819A810E94B70680E891E034
:101EE0000E940F0E8B819C810E94B706C2C080E8C1
:101EF00091E00E94C20D81E891E00E94C20D8981AB
:101F00009A810E94B70680E891E00E940F0E81E856
:101F100091E00E940F0E8B819C810E94B706A9C0A0
:101F200080E891E00E94C20D81E891E00E94C20D1C
:101F300082E891E00E94C20D89819A810E94B706D1
:101F400080E891E00E940F0E81E891E00E940F0E60
:101F500082E891E00E940F0E8B819C810E94B7065F
:101F600088C080E891E00E94C20D81E891E00E9463
:101F7000C20D82E891E00E94C20D83E891E00E94C8
:101F8000C20D89819A810E94B70680E891E00E9483
:101F90000F0E81E891E00E940F0E82E891E00E940E
:101FA0000F0E83E891E00E940F0E8B819C810E94AE
:101FB000B7065FC080E891E00E940F0E81E891E0D3
:101FC0000E94C20D82E891E00E94C20D83E891E078
:101FD0000E94C20D89819A810E94B70681E891E032
:101FE0000E940F0E82E891E00E940F0E83E891E0BC
:101FF0000E940F0E8B819C810E94B7063AC082E836
:1020000091E00E94C20D83E891E00E94C20D898197
:102010009A810E94B70682E891E00E940F0E83E841
:1020200091E00E940F0E8B819C810E94B70621C017
:1020300083E891E00E94C20D89819A810E94B706CF
:1020400083E891E00E940F0E8B819C810E94B7066D
:1020500010C080E891E00E940F0E81E891E00E949C
:102060000F0E82E891E00E940F0E83E891E00E943B
:102070000F0E26960FB6F894DEBF0FBECDBFCF91E0
:10208000DF910895DF93CF93CDB7DEB780919A01AA
:102090008F5F80939A0180919A01893011F4109298
:1020A0009A01CF91DF910895DF93CF93CDB7DEB73B
:1020B000809192018F5F809392018091920186308E
:1020C00019F481E080939201CF91DF910895DF931D
:1020D000CF93CDB7DEB70E94A80ECF91DF910895C0
:1020E0002F923F924F925F926F927F928F929F9228
:1020F000AF92BF92CF92DF92EF92FF920F931F9316
:10210000CF93DF93CDB7DEB7CA1BDB0B0FB6F894C6
:10211000DEBF0FBECDBF09942A88398848885F8406
:102120006E847D848C849B84AA84B984C884DF8077
:10213000EE80FD800C811B81AA81B981CE0FD11D5B
:102140000FB6F894DEBF0FBECDBFED010895F89431
:02215000FFCFBF
:10215200000000000000000000010202030303036C
:102162000404040404040404050505050505050525
:102172000505050505050505060606060606060605
:1021820006060606060606060606060606060606ED
:1021920006060606060606060707070707070707D5
:1021A20007070707070707070707070707070707BD
:1021B20007070707070707070707070707070707AD
:1021C200070707070707070707070707070707079D
:1021D2000707070707070707080808080808080885
:1021E200080808080808080808080808080808086D
:1021F200080808080808080808080808080808085D
:10220200080808080808080808080808080808084C
:10221200080808080808080808080808080808083C
:10222200080808080808080808080808080808082C
:10223200080808080808080808080808080808081C
:10224200080808080808080808080808080808080C
:1022520008080808080808083A0037003400310066
:102262003B003800350032003900360033003000C0
:10227200020A121A9301009B01004210000054103E
:042282000100010056
:00000001FF
