S01900006C65645F73657175616E63655F76332E302E73726563BC
S11300000C9452000C9415040C943C040C9463045A
S11300100C946F000C946F000C946F000C946F00A0
S11300200C946F000C946F000C9487060C942906B2
S11300300C946F000C946F000C946F000C946F0080
S11300400C946F000C946F000C946F000C946F0070
S11300500C946F000C946F000C946F000C946F0060
S11300600C946F000C946F000C946F000C946F0050
S11300700C946F00A100BA00DB0004013501620199
S113008083019C01D704DC04E204E804ED04F304D6
S1130090F804FE0466056B05710578057E05840584
S11300A08B05910511241FBECFEFD4E0DEBFCDBF79
S11300B011E0A0E0B1E0ECE6FDE002C005900D9295
S11300C0AC32B107D9F721E0ACE2B1E001C01D9236
S11300D0A334B207E1F70E94AD020C94B4060C9469
S11300E00000089580912C018F5F80932C0189304A
S11300F011F410922C010895809100018F5F809378
S11301000001863019F481E08093000108958F92F4
S11301109F92AF92BF92CF92DF92EF92FF92E091C3
S11301202C01CE2ED12CF6013197E830F10508F0E0
S113013013C169017A014B015C01E65CFF4F0C9429
S1130140AE068AE191E00E94520281E091E00E94B1
S11301505605C501B4010E94A3058AE191E00E94FD
S11301607C0281E091E00E945605C701B6010E941D
S1130170A305F2C08AE191E00E94520289E191E074
S11301800E94520281E091E00E945605C501B4012B
S11301900E94A3058AE191E00E947C0289E191E03A
S11301A00E947C0281E091E00E945605C701B601DD
S11301B00E94A305D1C08AE191E00E94520289E124
S11301C091E00E94520288E191E00E94520281E093
S11301D091E00E945605C501B4010E94A3058AE17D
S11301E091E00E947C0289E191E00E947C0288E116
S11301F091E00E947C0281E091E00E945605C701D3
S1130200B6010E94A305A8C08AE191E00E945202AF
S113021089E191E00E94520288E191E00E94520239
S113022087E191E00E94520281E091E00E9456052C
S1130230C501B4010E94A3058AE191E00E947C02F9
S113024089E191E00E947C0288E191E00E947C02B5
S113025087E191E00E947C0281E091E00E945605D2
S1130260C701B6010E94A30577C08AE191E00E940C
S11302707C0289E191E00E94520288E191E00E94AF
S1130280520287E191E00E94520281E091E00E94D3
S11302905605C501B4010E94A30589E191E00E94BD
S11302A07C0288E191E00E947C0287E191E00E9457
S11302B07C0281E091E00E945605C701B6010E94CC
S11302C0A3054AC088E191E00E94520287E191E0CF
S11302D00E94520281E091E00E945605C501B401DA
S11302E00E94A30588E191E00E947C0287E191E0ED
S11302F00E947C0281E091E00E945605C701B6018C
S11303000E94A30529C087E191E00E94520281E086
S113031091E00E945605C501B4010E94A30587E13E
S113032091E00E947C0281E091E00E945605C701A1
S1130330B6010E94A30510C08AE191E00E947C02EC
S113034089E191E00E947C0288E191E00E947C02B4
S113035087E191E00E947C02FF90EF90DF90CF90C4
S1130360BF90AF909F908F9008958AE191E00E9492
S1130370290289E191E00E94290288E191E00E942A
S1130380290287E191E00E9429028DE091E00E9418
S113039062038DE091E00E94F80389E091E00E94FD
S11303A0620389E091E00E94F80384E191E00E94F5
S11303B0A60281E191E00E94A6020E948A0481E0E3
S11303C091E00E94A20480910001833009F128F495
S11303D0813041F0823089F0F6CF843021F18530CC
S11303E069F1F1CF24E833E040E050E064E670E0E6
S11303F080E090E00E948700E6CF20E233E040E016
S113040050E068EC70E080E090E00E948700DBCF71
S11304102CEB32E040E050E06CE271E080E090E0F0
S11304200E948700D0CF24EF31E040E050E064EF39
S113043071E080E090E00E948700C5CF28EC30E0B6
S113044040E050E060E273E080E090E00E948700CA
S1130450BACFCF93DF931F92CDB7DEB70097E9F001
S1130460FC012081922F97708981887F892B922F9C
S11304709695969596959770990F990F990F877CF5
S1130480892B26FB222720F9806420FB87F98983A6
S1130490CE0101960E94310301C080E00F90DF91EC
S11304A0CF910895CF93DF931F92CDB7DEB7009716
S11304B0F1F0FC012081922F97708981887F892B2C
S11304C0922F9695969596959770990F990F990FE7
S11304D0877C892B26FB222720F9806420FB87F95F
S11304E0898361E0CE0101960E94F10201C080E09F
S11304F00F90DF91CF910895CF93DF931F92CDB7E3
S1130500DEB70097F1F0FC012081922F977089816A
S1130510887F892B922F9695969596959770990F2B
S1130520990F990F877C892B26FB222720F9806459
S113053020FB87F9898360E0CE0101960E94F102D5
S113054001C080E00F90DF91CF910895009719F0DA
S11305500E94B002089580E008950E94B5010895B4
S1130560FC01892BD1F120812695269526952770AB
S1130570808186FB992790F986FF18C0913079F520
S1130580E82FE770F0E0EE0FFF1FED5DFE4F0190E6
S1130590F081E02D308181E090E002C0880F991F46
S11305A02A95E2F7832B808381E00895E081E77048
S11305B0F0E0EE0FFF1FED5DFE4F0190F081E02DA6
S11305C0308181E090E002C0880F991F2A95E2F7FC
S11305D080958323808381E0089580E0089580E0FE
S11305E008950097D1F1DC012C9126952695269546
S11305F02770662319F06130C9F031C0DC01EC9139
S1130600E770F0E0EE0FFF1FE55EFE4F0190F08112
S1130610E02D308181E090E002C0880F991F2A9577
S1130620E2F780958323808381E00895DC01EC91D7
S1130630E770F0E0EE0FFF1FE55EFE4F0190F081E2
S1130640E02D308181E090E002C0880F991F2A9547
S1130650E2F7832B808381E0089580E0089580E0B1
S11306600895CF93DF93009759F0EC010E94B002F4
S1130670688167FB662760F9CE010E94F10201C020
S113068080E0DF91CF910895009731F0909332018B
S11306908093310181E0089580E00895009731F05E
S11306A09093300180932F0181E0089580E00895B4
S11306B0009731F090932E0180932D0181E00895ED
S11306C080E00895009709F489C0FC01828181309B
S11306D0C9F120F0823009F468C082C0838181119D
S11306E00AC00E948A048BB780648BBF85B78C7F55
S11306F085BF81E00895813059F40E948A048BB744
S113070080648BBF85B78D7F816085BF81E008954C
S1130710823059F40E948A048BB780648BBF85B7FA
S113072082608E7F85BF81E00895833009F05AC0CE
S11307300E948A048BB780648BBF85B7836085BFB2
S113074081E00895838181110AC00E948A048BB7D5
S113075080688BBF85B7837F85BF81E00895813032
S113076059F40E948A048BB780688BBF85B7877F52
S1130770846085BF81E00895823059F40E948A0420
S11307808BB780688BBF85B788608B7F85BF81E01E
S11307900895833049F50E948A048BB780688BBF23
S11307A085B78C6085BF81E008958381823051F4E0
S11307B00E948A048BB780628BBF84B78F7B84BF0F
S11307C081E00895833091F40E948A048BB780629B
S11307D08BBF84B7806484BF81E0089580E008956E
S11307E080E0089580E0089580E0089580E0089511
S11307F00097B9F0FC018281813049F018F0823011
S113080059F011C0808191810E9444030895808130
S113081091810E944E030895808191810E94580322
S1130820089580E0089580E008951F920F920FB616
S11308300F9211242F933F934F935F936F937F9362
S11308408F939F93AF93BF93EF93FF93E091310105
S1130850F09132010995FF91EF91BF91AF919F9172
S11308608F917F916F915F914F913F912F910F9055
S11308700FBE0F901F9018951F920F920FB60F92F4
S113088011242F933F934F935F936F937F938F9391
S11308909F93AF93BF93EF93FF93E0912F01F09158
S11308A030010995FF91EF91BF91AF919F918F9185
S11308B07F916F915F914F913F912F910F900FBE58
S11308C00F901F9018951F920F920FB60F9211243C
S11308D02F933F934F935F936F937F938F939F9344
S11308E0AF93BF93EF93FF93E0912D01F0912E010D
S11308F00995FF91EF91BF91AF919F918F917F9156
S11309006F915F914F913F912F910F900FBE0F9078
S11309101F9018958FB780688FBF0895009731F0A6
S113092090933E0180933D018BE008958CE00895FF
S1130930009731F090933C0180933B018DE0089542
S11309408EE00895CF93DF93DC01892B09F4AAC0CC
S11309508C91813089F028F0823041F0833091F01D
S113096016C083B7877B83BF83E012C083B7877FBA
S1130970806483BF83E00CC083B788608F7B83BFB0
S113098083E006C083B7886483BF83E001C084E04A
S11309908330D1F51296EC9112974E2F50E04830E7
S11309A0510588F5FA01EE5BFF4F0C94AE0683B750
S11309B08F7C83BF85E028C083B78F7D806183BF30
S11309C085E022C083B780628F7E83BF85E01CC030
S11309D083B7806383BF85E017C083B780628F7E4F
S11309E083BF85E011C083B7806383BF85E00CC0FB
S11309F083B780628F7E83BF85E006C083B7806340
S1130A0083BF85E001C086E0ED01853079F58B81F7
S1130A10882319F08130A9F024C08881882319F033
S1130A20813041F020C00E948A0489B7816089BF67
S1130A3087E01CC00E948A0489B7826089BF87E06E
S1130A4015C08881882319F0813031F00EC089B730
S1130A508E7F89BF87E00AC089B78D7F89BF87E011
S1130A6005C088E003C088E001C088E0873089F4CD
S1130A708881882319F0813031F00AC08C819D81EE
S1130A800E948E0406C08E819F810E94980401C03A
S1130A908FE08B3011F08D3031F483B7887F83BFC2
S1130AA080E001C082E0DF91CF910895009709F4BE
S1130AB041C0DC011196EC918E2F90E088309105B5
S1130AC0A8F5FC01E65BFF4F0C94AE0683B7887F64
S1130AD083BF89E02CC083B7897F816083BF89E0AD
S1130AE026C083B78B7F82608E7F83BF89E01FC05F
S1130AF083B78B7F836083BF89E019C083B7846029
S1130B008C7F83BF89E013C083B784608D7F81604D
S1130B1083BF89E00CC083B786608E7F83BF89E082
S1130B2006C083B7876083BF89E001C08AE089304B
S1130B3021F402C082E0089580E0089583B7887F9D
S1130B4083BF80E008950F931F93DC01CB01880FCE
S1130B50991FAA1FBB1F880F991FAA1FBB1F880FAD
S1130B60991FAA1FBB1F8C019D01000F111F221F7B
S1130B70331F000F111F221F331F800F911FA21F4D
S1130B80B31FAC01BD01440F551F661F771F440FEF
S1130B90551F661F771F840F951FA61FB71FAC0133
S1130BA0BD01440F551F661F771F440F551F661F55
S1130BB0771F840F951FA61FB71F1092370110923D
S1130BC038011092390110923A01492F5A2F6B2F94
S1130BD0772740933F015093400160934101709304
S1130BE042019927AA27BB2740E051E060E070E06A
S1130BF08A019B01081B190B2A0B3B0B02BF809136
S1130C003F0190914001A0914101B09142010196B0
S1130C10A11DB11D80933F0190934001A093410118
S1130C20B09342018091370190913801A09139012C
S1130C30B0913A010197A105B105A1F710923701CE
S1130C40109238011092390110923A011F910F91BC
S1130C5008951F920F920FB60F9211242F933F9372
S1130C604F935F936F937F938F939F93AF93BF93B0
S1130C70EF93FF938091330190913401A09135015A
S1130C80B091360140913F01509140016091410182
S1130C907091420184179507A607B707E1F4E09124
S1130CA03D01F0913E0109951092330110923401F7
S1130CB0109235011092360181E090E0A0E0B0E09E
S1130CC08093370190933801A0933901B0933A018E
S1130CD00E949E050BC00196A11DB11D8093330196
S1130CE090933401A0933501B0933601FF91EF91B5
S1130CF0BF91AF919F918F917F916F915F914F9130
S1130D003F912F910F900FBE0F901F9018951F9237
S1130D100F920FB60F9211242F933F934F935F932B
S1130D206F937F938F939F93AF93BF93EF93FF93AF
S1130D30E0913B01F0913C010995FF91EF91BF9146
S1130D40AF919F918F917F916F915F914F913F915F
S1130D502F910F900FBE0F901F901895EE0FFF1F4D
S10F0D600590F491E02D0994F894FFCF65
S1130D6C0100020000710000007C00010072000010
S1130D7C009B01009301001A120A023B0038003553
S10F0D8C0032003A00370034003100004F
S9030000FC
