:020000040000FA
:10000000400300200D03000015030000170300004B
:10001000190300001B0300001D0300000000000086
:100020000000000000000000000000001F030000AE
:10003000210300000000000023030000891E0000CF
:100040009D04000021050000A50500002906000010
:10005000AD0600003103000033030000350300004B
:1000600037030000390300003B0300003D0300009C
:100070003F0300004103000043030000450300006C
:1000800047030000490300004B0300004D0300003C
:100090004F0300005103000053030000550300000C
:1000A00057030000590300005B0300005D030000DC
:1000B0005F030000610300003107000065030000DA
:1000C00067030000690300006B0300006D0300007C
:1000D0006F0300007103000073030000750300004C
:1000E0007703000079030000000000007B0300009C
:1000F0007D0300007F0300008103000083030000F4
:100100008503000087030000890300008B030000C3
:1001100000000000000000008D0300008F030000BD
:100120009103000093030000950300009703000073
:10013000990300009B0300009D0300009F03000043
:1001400000000000000000000000000000000000AF
:10015000A1030000A3030000A5030000A703000003
:10016000000000000000000000000000000000008F
:10017000000000000000000000000000000000007F
:10018000000000000000000000000000000000006F
:10019000000000000000000000000000000000005F
:1001A000000000000000000000000000000000004F
:1001B000A9030000AB030000AD030000AF03000083
:1001C000B1030000B3030000B5030000B703000053
:1001D000B9030000BB030000BD030000BF03000023
:1001E000C1030000C3030000C503000000000000BD
:1001F00000000000C7030000C9030000CB0300009B
:10020000CD030000CF03000000000000000000004C
:10021000D1030000D3030000D5030000D703000082
:10022000D9030000DB030000DD030000DF03000052
:10023000E1030000E3030000E5030000E703000022
:10024000E9030000EB030000ED030000EF030000F2
:10025000F1030000F3030000F5030000F7030000C2
:10026000F9030000FB030000FD03000000F002F8AA
:1002700000F03CF80AA090E8000C82448344AAF104
:100280000107DA4501D100F031F8AFF2090EBAE802
:100290000F0013F0010F18BFFB1A43F001031847BA
:1002A0003020000050200000103A24BF78C878C1E8
:1002B000FAD8520724BF30C830C144BF04680C606C
:1002C000704700000023002400250026103A28BFB4
:1002D00078C1FBD8520728BF30C148BF0B607047B8
:1002E0001FB501F0E8FF1FBD10B510BD00F09BF871
:1002F0001146FFF7F5FF01F0CDFF00F0B9F803B4A8
:10030000FFF7F2FF03BC00F0C1F800003F48804750
:100310003F480047FEE7FEE7FEE7FEE7FEE7FEE7B1
:10032000FEE7FEE7FEE7FEE7FEE7FEE7FEE7FEE7A5
:10033000FEE7FEE7FEE7FEE7FEE7FEE7FEE7FEE795
:10034000FEE7FEE7FEE7FEE7FEE7FEE7FEE7FEE785
:10035000FEE7FEE7FEE7FEE7FEE7FEE7FEE7FEE775
:10036000FEE7FEE7FEE7FEE7FEE7FEE7FEE7FEE765
:10037000FEE7FEE7FEE7FEE7FEE7FEE7FEE7FEE755
:10038000FEE7FEE7FEE7FEE7FEE7FEE7FEE7FEE745
:10039000FEE7FEE7FEE7FEE7FEE7FEE7FEE7FEE735
:1003A000FEE7FEE7FEE7FEE7FEE7FEE7FEE7FEE725
:1003B000FEE7FEE7FEE7FEE7FEE7FEE7FEE7FEE715
:1003C000FEE7FEE7FEE7FEE7FEE7FEE7FEE7FEE705
:1003D000FEE7FEE7FEE7FEE7FEE7FEE7FEE7FEE7F5
:1003E000FEE7FEE7FEE7FEE7FEE7FEE7FEE7FEE7E5
:1003F000FEE7FEE7FEE7FEE7FEE7FEE7FEE70000BA
:1004000004480549034A054B70470000AD1E000033
:100410006D02000040010020400300204001002048
:10042000704770477047754600F02CF8AE460500DF
:100430006946534620F00700854618B020B5FFF7FF
:10044000DFFFBDE820404FF000064FF000074FF0FF
:1004500000084FF0000BAC46ACE8C009ACE8C0099E
:10046000ACE8C009ACE8C00921F007018D4670472F
:1004700010B50446AFF300802046BDE81040FFF7FA
:100480003EBF0000004870471800002001491820B6
:10049000ABBEFEE7260002007047000080B582B0C8
:1004A00000208DF80700FFE79DF80700072835DCDE
:1004B000FFE744F21440C4F2000000689DF8071002
:1004C000C840C00710B3FFE79DF80710012000FAED
:1004D00001F244F21C41C4F20001086810430860B4
:1004E0009DF8071040F27800C2F2000050F8210099
:1004F00050B1FFE79DF8071040F27800C2F200000B
:1005000050F82100804709E0FFE700E0FFE7FFE740
:100510009DF8070001308DF80700C5E702B080BDE7
:1005200080B582B000208DF80700FFE79DF8070036
:10053000072835DCFFE745F21440C4F200000068EC
:100540009DF80710C840C00710B3FFE79DF80710DB
:10055000012000FA01F245F21C41C4F200010868D2
:10056000104308609DF8071040F29800C2F20000A6
:1005700050F8210050B1FFE79DF8071040F29800B5
:10058000C2F2000050F82100804709E0FFE700E0D8
:10059000FFE7FFE79DF8070001308DF80700C5E78A
:1005A00002B080BD80B582B000208DF80700FFE763
:1005B0009DF80700072835DCFFE746F21440C4F237
:1005C000000000689DF80710C840C00710B3FFE79F
:1005D0009DF80710012000FA01F246F21C41C4F216
:1005E00000010868104308609DF8071040F2B80049
:1005F000C2F2000050F8210050B1FFE79DF807104B
:1006000040F2B800C2F2000050F82100804709E033
:10061000FFE700E0FFE7FFE79DF8070001308DF8F6
:100620000700C5E702B080BD80B582B000208DF81C
:100630000700FFE79DF80700072835DCFFE747F2D2
:100640001440C4F2000000689DF80710C840C007BD
:1006500010B3FFE79DF80710012000FA01F247F2FE
:100660001C41C4F200010868104308609DF807109F
:1006700040F2D800C2F2000050F8210050B1FFE76C
:100680009DF8071040F2D800C2F2000050F8210097
:10069000804709E0FFE700E0FFE7FFE79DF807007C
:1006A00001308DF80700C5E702B080BD80B582B08B
:1006B00000208DF80700FFE79DF80700072835DCCC
:1006C000FFE744F21440C4F2020000689DF80710EE
:1006D000C840C00710B3FFE79DF80710012000FADB
:1006E00001F244F21C41C4F20201086810430860A0
:1006F0009DF8071040F2F800C2F2000050F8210007
:1007000050B1FFE79DF8071040F2F800C2F2000078
:1007100050F82100804709E0FFE700E0FFE7FFE72E
:100720009DF8070001308DF80700C5E702B080BDD5
:1007300080B582B000208DF80700FFE79DF8070024
:10074000072835DCFFE745F21440C4F202000068D8
:100750009DF80710C840C00710B3FFE79DF80710C9
:10076000012000FA01F245F21C41C4F202010868BE
:10077000104308609DF8071040F21010C2F200000C
:1007800050F8210050B1FFE79DF8071040F210101B
:10079000C2F2000050F82100804709E0FFE700E0C6
:1007A000FFE7FFE79DF8070001308DF80700C5E778
:1007B00002B080BD80B5D8B05790579828B9FFE7F0
:1007C00003208DF85B0100F067BF5798007C042878
:1007D0001AD1FFE75798407C072810DBFFE75798AE
:1007E000017C012000FA01F24EF20861C4F20F010F
:1007F00008681043086014208DF85B0103E01520A1
:100800008DF85B01FFE70FE05798017C012000FAAB
:1008100001F24EF20861C4F20F010868104308604B
:1008200014208DF85B01FFE75798007C032808DC53
:10083000FFE75798017C4FF0402000EB01305590C6
:1008400008E05798017C0020C4F2020000EB013060
:100850005590FFE7559944F24B30C4F64F40C1F82C
:1008600020055798007C032808DCFFE75798017C97
:100870004FF0402000EB0130549008E05798017C85
:100880000020C4F2020000EB01305490FFE75499BD
:100890000320C1F824059DF85B0114285AD1FFE715
:1008A0005798807830BBFFE75799087C4A7C012134
:1008B0009140C9435391032808DCFFE75798017C16
:1008C0004FF0402000EB0130529008E05798017C37
:1008D0000020C4F2020000EB01305290FFE7539A6F
:1008E0005299D1F800041040C1F8000404208DF89A
:1008F0005B012EE057988078012825D1FFE75799B2
:10090000087C4A7C012191405191032808DCFFE7D3
:100910005798017C4FF0402000EB0130509008E0E8
:100920005798017C0020C4F2020000EB0130509087
:10093000FFE7519A5099D1F800041043C1F8000420
:1009400004208DF85B0103E005208DF85B01FFE7D3
:10095000FFE700E0FFE79DF85B01042864D1FFE7B3
:100960005798C078012825D1FFE75799087C4A7C21
:10097000012191404F91032808DCFFE75798017C43
:100980004FF0402000EB01304E9008E05798017C7A
:100990000020C4F2020000EB01304E90FFE74F9AB6
:1009A0004E99D1F8FC031043C1F8FC0306208DF8E2
:1009B0005B0138E05798C07830BBFFE75799087C57
:1009C0004A7C01219140C9434D91032808DCFFE78F
:1009D0005798017C4FF0402000EB01304C9008E02C
:1009E0005798017C0020C4F2020000EB01304C90CB
:1009F000FFE74D9A4C99D1F8FC031040C1F8FC0375
:100A000006208DF85B010DE05798C078022804D1CC
:100A1000FFE706208DF85B0103E007208DF85B01FE
:100A2000FFE7FFE7FFE700E0FFE79DF85B0106282F
:100A300040F08F80FFE757984078022825D1FFE7E4
:100A40005799087C4A7C012191404B91032808DC8E
:100A5000FFE75798017C4FF0402000EB01304A90AF
:100A600008E05798017C0020C4F2020000EB01303E
:100A70004A90FFE74B9A4A99D1F800051043C1F814
:100A8000000508208DF85B0162E057984078012846
:100A900025D1FFE75799087C4A7C01219140499173
:100AA000032808DCFFE75798017C4FF0402000EB5B
:100AB0000130489008E05798017C0020C4F2020001
:100AC00000EB01304890FFE7499A4899D1F80405B6
:100AD0001043C1F8040508208DF85B0137E05798F2
:100AE000407828BBFFE75799087C4A7C0121914058
:100AF0004791032808DCFFE75798017C4FF040201E
:100B000000EB0130469008E05798017C0020C4F2C9
:100B1000020000EB01304690FFE7479A4699D1F872
:100B200008051043C1F8080508208DF85B010DE0A9
:100B300057984078032804D1FFE708208DF85B011F
:100B400003E009208DF85B01FFE7FFE7FFE7FFE720
:100B500000E0FFE79DF85B01082840F0C281FFE755
:100B600057980078022869D1FFE75799087C4A7C9A
:100B700001219140C9434591032808DCFFE75798BC
:100B8000017C4FF0402000EB0130449008E0579882
:100B9000017C0020C4F2020000EB01304490FFE72A
:100BA000459A4499D1F820041040C1F8200457997F
:100BB000087C4A7C01219140C9434391032808DC09
:100BC000FFE75798017C4FF0402000EB0130429046
:100BD00008E05798017C0020C4F2020000EB0130CD
:100BE0004290FFE7439A4299D1F828051040C1F896
:100BF00028055799087C4A7C01219140419103289E
:100C000008DCFFE75798017C4FF0402000EB0130F3
:100C1000409008E05798017C0020C4F2020000EBED
:100C200001304090FFE7419A4099D1F81C051043EC
:100C3000C1F81C050A208DF85B0151E15798007836
:100C4000012869D1FFE75799087C4A7C012191402E
:100C5000C9433F91032808DCFFE75798017C4FF018
:100C6000402000EB01303E9008E05798017C0020C6
:100C7000C4F2020000EB01303E90FFE73F9A3E993C
:100C8000D1F820041040C1F820045799087C4A7C10
:100C900001219140C9433D91032808DCFFE75798A3
:100CA000017C4FF0402000EB01303C9008E0579869
:100CB000017C0020C4F2020000EB01303C90FFE711
:100CC0003D9A3C99D1F81C051040C1F81C05579974
:100CD000087C4A7C012191403B91032808DCFFE716
:100CE0005798017C4FF0402000EB01303A9008E02B
:100CF0005798017C0020C4F2020000EB01303A90CA
:100D0000FFE73B9A3A99D1F828051043C1F8280526
:100D10000A208DF85B01E2E05798007800286AD13C
:100D2000FFE75799087C4A7C01219140C9433991DA
:100D3000032808DCFFE75798017C4FF0402000EBC8
:100D40000130389008E05798017C0020C4F202007E
:100D500000EB01303890FFE7399A3899D1F8200438
:100D60001040C1F820045799087C4A7C0121914029
:100D7000C9433791032808DCFFE75798017C4FF0FF
:100D8000402000EB0130369008E05798017C0020AD
:100D9000C4F2020000EB01303690FFE7379A369933
:100DA000D1F828051040C1F828055799087C4A7CDD
:100DB00001219140C9433591032808DCFFE757988A
:100DC000017C4FF0402000EB0130349008E0579850
:100DD000017C0020C4F2020000EB01303490FFE7F8
:100DE000359A3499D1F81C051040C1F81C050A2029
:100DF0008DF85B0172E057980078032869D1FFE70E
:100E00005799087C4A7C012191403391032808DCE2
:100E1000FFE75798017C4FF0402000EB0130329003
:100E200008E05798017C0020C4F2020000EB01307A
:100E30003290FFE7339A3299D1F820041043C1F879
:100E400020045799087C4A7C01219140C943319183
:100E5000032808DCFFE75798017C4FF0402000EBA7
:100E60000130309008E05798017C0020C4F2020065
:100E700000EB01303090FFE7319A3099D1F8280526
:100E80001040C1F828055799087C4A7C01219140FF
:100E9000C9432F91032808DCFFE75798017C4FF0E6
:100EA000402000EB01302E9008E05798017C002094
:100EB000C4F2020000EB01302E90FFE72F9A2E992A
:100EC000D1F81C051040C1F81C050A208DF85B0103
:100ED00003E00B208DF85B01FFE7FFE7FFE7FFE78B
:100EE00000E0FFE79DF85B010A2840F05C81FFE726
:100EF00057980079002869D1FFE75799087C4A7C08
:100F0000012191402D91032808DCFFE75798017CCF
:100F10004FF0402000EB01302C9008E05798017C06
:100F20000020C4F2020000EB01302C90FFE72D9A64
:100F30002C99D1F810051043C1F810055799087C79
:100F40004A7C01219140C9432B91032808DCFFE72B
:100F50005798017C4FF0402000EB01302A9008E0C8
:100F60005798017C0020C4F2020000EB01302A9067
:100F7000FFE72B9A2A99D1F814051040C1F81405FF
:100F80005799087C4A7C01219140C9432991032843
:100F900008DCFFE75798017C4FF0402000EB013060
:100FA000289008E05798017C0020C4F2020000EB72
:100FB00001302890FFE7299A2899D1F80C051040B4
:100FC000C1F80C050C208DF85B01EBE05798007917
:100FD000012869D1FFE75799087C4A7C012191409B
:100FE000C9432791032808DCFFE75798017C4FF09D
:100FF000402000EB0130269008E05798017C00204B
:10100000C4F2020000EB01302690FFE7279A2699F0
:10101000D1F810051040C1F810055799087C4A7C9A
:10102000012191402591032808DCFFE75798017CB6
:101030004FF0402000EB0130249008E05798017CED
:101040000020C4F2020000EB01302490FFE7259A53
:101050002499D1F814051043C1F814055799087C58
:101060004A7C01219140C9432391032808DCFFE712
:101070005798017C4FF0402000EB0130229008E0AF
:101080005798017C0020C4F2020000EB013022904E
:10109000FFE7239A2299D1F80C051040C1F80C05FE
:1010A0000C208DF85B017CE057980079022869D10B
:1010B000FFE75799087C4A7C01219140C94321915F
:1010C000032808DCFFE75798017C4FF0402000EB35
:1010D0000130209008E05798017C0020C4F2020003
:1010E00000EB01302090FFE7219A2099D1F81005FC
:1010F0001040C1F810055799087C4A7C01219140A5
:10110000C9431F91032808DCFFE75798017C4FF083
:10111000402000EB01301E9008E05798017C002031
:10112000C4F2020000EB01301E90FFE71F9A1E99E7
:10113000D1F814051040C1F814055799087C4A7C71
:10114000012191401D91032808DCFFE75798017C9D
:101150004FF0402000EB01301C9008E05798017CD4
:101160000020C4F2020000EB01301C90FFE71D9A42
:101170001C99D1F80C051043C1F80C050C208DF812
:101180005B010DE057980079032804D1FFE70C209C
:101190008DF85B0103E00D208DF85B01FFE7FFE7B1
:1011A000FFE7FFE700E0FFE79DF85B010C2840F058
:1011B0006482FFE757984079002840F03182FFE7CA
:1011C000579800F019FB8DF85B019DF85B0116281C
:1011D00040F02482FFE75799087C4A7C0121914026
:1011E000C9431B91032808DCFFE75798017C4FF0A7
:1011F000402000EB01301A9008E05798017C002055
:10120000C4F2020000EB01301A90FFE71B9A1A9912
:10121000D1F810041040C1F810045798807928BB09
:10122000FFE75799087C4A7C0121914019910328D6
:1012300008DCFFE75798017C4FF0402000EB0130BD
:10124000189008E05798017C0020C4F2020000EBDF
:1012500001301890FFE7199A1899D1F80404104347
:10126000C1F804040E208DF85B012FE057988079B7
:10127000012826D1FFE75799087C4A7C012191403B
:10128000C9431791032808DCFFE75798017C4FF00A
:10129000402000EB0130169008E05798017C0020B8
:1012A000C4F2020000EB01301690FFE7179A16997E
:1012B000D1F804041040C1F804040E208DF85B013D
:1012C00003E00F208DF85B01FFE7FFE79DF85B016E
:1012D0000E2840F02081FFE75798C079002840F0A1
:1012E0001A81FFE75799087C4A7C01219140C94344
:1012F0001591032808DCFFE75798017C4FF0402048
:1013000000EB0130149008E05798017C0020C4F2F3
:10131000020000EB01301490FFE7159A1499D1F800
:1013200008041040C1F808045798007A002874D1C6
:10133000FFE75799087C4A7C01219140C9431391EA
:10134000032808DCFFE75798017C4FF0402000EBB2
:101350000130129008E05798017C0020C4F202008E
:1013600000EB01301290FFE7139A1299D1F80C04A8
:101370001040C1F80C045799087C4A7C0121914027
:10138000C9431191032808DCFFE75798017C4FF00F
:10139000402000EB0130109008E05798017C0020BD
:1013A000C4F2020000EB01301090FFE7119A10998F
:1013B000D1F814041040C1F814045799087C4A7CF1
:1013C000012191400F91032808DCFFE75798017C29
:1013D0004FF0402000EB01300E9008E05798017C60
:1013E0000020C4F2020000EB01300E90FFE70F9ADC
:1013F0000E99D1F810041043C1F81004579800F06A
:101400004FF98DF85B019DF85B01102804D1FFE7CF
:101410000E208DF85B01FFE77CE05798007A0128E9
:1014200073D1FFE75799087C4A7C012191400D91C7
:10143000032808DCFFE75798017C4FF0402000EBC1
:1014400001300C9008E05798017C0020C4F20200A3
:1014500000EB01300C90FFE70D9A0C99D1F80C04C9
:101460001043C1F80C045799087C4A7C0121914033
:10147000C9430B91032808DCFFE75798017C4FF024
:10148000402000EB01300A9008E05798017C0020D2
:10149000C4F2020000EB01300A90FFE70B9A0A99B0
:1014A000D1F814041040C1F814045799087C4A7C00
:1014B000012191400991032808DCFFE75798017C3E
:1014C0004FF0402000EB0130089008E05798017C75
:1014D0000020C4F2020000EB01300890FFE7099AF7
:1014E0000899D1F810041043C1F81004579800F07F
:1014F000D7F88DF85B019DF85B01102804D1FFE758
:101500000E208DF85B01FFE703E00F208DF85B01F3
:10151000FFE7FFE781E09DF85B010E2878D1FFE748
:101520005798C079012873D1FFE75799087C4A7C06
:10153000012191400791032808DCFFE75798017CBF
:101540004FF0402000EB0130069008E05798017CF6
:101550000020C4F2020000EB01300690FFE7079A7A
:101560000699D1F808041043C1F808045799087C7B
:101570004A7C01219140C9430591032808DCFFE71B
:101580005798017C4FF0402000EB0130049008E0B8
:101590005798017C0020C4F2020000EB0130049057
:1015A000FFE7059A0499D1F814041040C1F8140417
:1015B0005799087C4A7C012191400391032808DC5B
:1015C000FFE75798017C4FF0402000EB013002907C
:1015D00008E05798017C0020C4F2020000EB0130C3
:1015E0000290FFE7039A0299D1F810041043C1F862
:1015F0001004579800F054F88DF85B019DF85B01DA
:10160000102804D1FFE70E208DF85B01FFE703E00F
:101610000F208DF85B01FFE7FFE700E0FFE72BE01D
:1016200057984079012826D1FFE75799087C4A7CD2
:1016300001219140C9430191032808DCFFE7579835
:10164000017C4FF0402000EB0130009008E05798FB
:10165000017C0020C4F2020000EB01300090FFE7A3
:10166000019A0099D1F810041040C1F810040E201E
:101670008DF85B01FFE7FFE700E0FFE79DF85B0106
:101680000E2804D1FFE700208DF85B0103E0012064
:101690008DF85B01FFE7FFE79DF85B0158B080BD67
:1016A00080B582B00190019820B9FFE703208DF842
:1016B000030056E00198007C40B9FFE7002000F0ED
:1016C000FFFB62B610208DF8030049E00198007C12
:1016D000012808D1FFE7012000F0F2FB62B61020DC
:1016E0008DF803003BE00198007C022808D1FFE759
:1016F000022000F0E5FB62B610208DF803002DE01B
:101700000198007C032808D1FFE7032000F0D8FBF4
:1017100062B610208DF803001FE00198007C0428B9
:1017200008D1FFE7042000F0CBFB62B610208DF853
:10173000030011E00198007C052808D1FFE71E2076
:1017400000F0BEFB62B610208DF8030003E011200C
:101750008DF80300FFE7FFE7FFE7FFE7FFE7FFE79D
:10176000FFE79DF8030002B080BD000084B0039045
:10177000029100208DF806000398007C032808DC05
:10178000FFE70398017C4FF0402000EB0130009010
:1017900008E00398017C0020C4F2020000EB013055
:1017A0000090FFE70098D0F8FC030399497CC840FB
:1017B00000F001008DF806009DF8060038B9FFE73B
:1017C00002990020087006208DF8070010E09DF8AF
:1017D0000600012807D1FFE70299012008700620C2
:1017E0008DF8070003E007208DF80700FFE7FFE70B
:1017F0009DF8070004B0704782B00190019840B98D
:10180000FFE70198C06820B9FFE703208DF80300C7
:101810007EE00198007C68B9FFE70199C8684A7CBE
:1018200040F27801C2F2000141F8220016208DF842
:1018300003006CE00198007C01280DD1FFE70199BD
:10184000C8684A7C40F29801C2F2000141F82200C7
:1018500016208DF8030059E00198007C02280DD174
:10186000FFE70199C8684A7C40F2B801C2F2000162
:1018700041F8220016208DF8030046E00198007C14
:1018800003280DD1FFE70199C8684A7C40F2D801CE
:10189000C2F2000141F8220016208DF8030033E067
:1018A0000198007C042817D1FFE70198007C0728E5
:1018B0000DDBFFE70199C8684A7C40F2F801C2F2EB
:1018C000000141F8220016208DF8030003E01520E6
:1018D0008DF80300FFE716E00198007C05280DD184
:1018E000FFE70199C8684A7C40F21011C2F200017A
:1018F00041F8220016208DF8030003E017208DF830
:101900000300FFE7FFE7FFE7FFE7FFE7FFE7FFE78A
:101910009DF8030002B0704786B005908DF8131053
:101920009DF81300012825D1FFE70599087C4A7C22
:10193000012191400391032808DCFFE70598017C11
:101940004FF0402000EB0130029008E00598017C48
:101950000020C4F2020000EB01300290FFE7039A7E
:101960000299D1F8FC031043C1F8FC0306208DF85E
:1019700012002EE09DF8130030BBFFE70599087CAC
:101980004A7C01219140C9430191032808DCFFE70B
:101990000598017C4FF0402000EB0130009008E0FA
:1019A0000598017C0020C4F2020000EB0130009099
:1019B000FFE7019A0099D1F8FC031040C1F8FC033D
:1019C00006208DF8120003E007208DF81200FFE7D3
:1019D000FFE79DF8120006B07047000080B588B0A0
:1019E0000790079820B9FFE702208DF81B0032E02E
:1019F00002208DF8040003228DF8052001218DF8C6
:101A00000610079B9B788DF807308DF808208DF81D
:101A100009108DF80A008DF80B008DF80C000020DD
:101A20000490079800788DF81400079840788DF896
:101A3000150001A8FEF7BEFE8DF81A009DF81A00E9
:101A400020B9FFE700208DF81B0003E001208DF88E
:101A50001B00FFE7FFE79DF81B0008B080BD0000FA
:101A600080B588B00790079820B9FFE702208DF86D
:101A70001B0033E002208DF8040003228DF80520BE
:101A800001218DF80610079B9B788DF807308DF8A3
:101A900008208DF809108DF80A008DF80B008DF8DC
:101AA0000C0000210491079800788DF81400079825
:101AB00040788DF8150001A8FFF72EFF8DF81A0069
:101AC0009DF81A00062804D1FFE700208DF81B00BE
:101AD00003E001208DF81B00FFE7FFE79DF81B00E6
:101AE00008B080BD80B588B00790079820B9FFE79F
:101AF00002208DF81B0033E002208DF80400032241
:101B00008DF8052001218DF80610079B9B788DF834
:101B100007308DF808208DF809108DF80A008DF82F
:101B20000B008DF80C0000200490079800788DF8C9
:101B30001400079840788DF8150001A8FFF7ECFE17
:101B40008DF81A009DF81A00062804D1FFE700203E
:101B50008DF81B0003E001208DF81B00FFE7FFE775
:101B60009DF81B0008B080BD80B588B0079007982D
:101B700020B9FFE702208DF81B0031E002218DF82B
:101B8000041000208DF805008DF806008DF8071070
:101B9000079A92788DF8082001228DF809208DF897
:101BA0000A108DF80B108DF80C100490079800782F
:101BB0008DF81400079840788DF8150001A8FEF7FD
:101BC000F9FD8DF81A009DF81A0020B9FFE70020F2
:101BD0008DF81B0003E001208DF81B00FFE7FFE7F5
:101BE0009DF81B0008B080BD80B58AB008900791B1
:101BF000089818B1FFE7079820B9FFE702208DF891
:101C00001B0072E002218DF8041000208DF8050001
:101C10008DF806008DF80710089A92788DF8082044
:101C200001228DF809208DF80A108DF80B108DF81F
:101C30000C100490089800788DF8140008984078EB
:101C40008DF8150001A80DF11901FFF78FFD8DF832
:101C50001A009DF81A00062837D1FFE70898807807
:101C6000A0B9FFE79DF81900012807D1FFE7079900
:101C70000120087004208DF81B0006E00799002061
:101C8000087004208DF81B00FFE71DE0089880789D
:101C9000012814D1FFE79DF81900012807D1FFE7BB
:101CA00007990020087004208DF81B0006E00799B2
:101CB0000120087004208DF81B00FFE703E00320DB
:101CC0008DF81B00FFE7FFE700E0FFE79DF81B0032
:101CD000032804D1FFE705208DF81B0000E0FFE793
:101CE0009DF81B008DF82700FFE79DF827000AB03C
:101CF00080BD000082B00190019820B9FFE702206A
:101D00008DF8030098E00198007860B9FFE74EF283
:101D10001001CEF20001086840F0040008600320C2
:101D20008DF8030015E00198007801280CD1FFE739
:101D30004EF21001CEF20001086820F004000860A5
:101D400003208DF8030003E004208DF80300FFE773
:101D5000FFE79DF8030003282DD1FFE701984078A5
:101D600098B9FFE74EF21001CEF20001086840F08A
:101D7000020008600198406840F23811C2F2000188
:101D8000086005208DF8030014E00198407860B9E0
:101D9000FFE74EF21001CEF20001086820F00200C9
:101DA000086005208DF8030003E001208DF8030092
:101DB000FFE7FFE700E0FFE79DF80300052827D1D4
:101DC000FFE70198807860B9FFE74EF21001CEF28C
:101DD0000001086840F00100086007208DF803004A
:101DE00015E00198807801280CD1FFE74EF2100130
:101DF000CEF20001086820F00100086008208DF88C
:101E0000030003E009208DF80300FFE7FFE700E08F
:101E1000FFE79DF80300072805D0FFE79DF80300C2
:101E2000082804D1FFE700208DF8030003E001201B
:101E30008DF80300FFE7FFE79DF8030002B070474D
:101E400082B001904EF21801CEF20001002008602D
:101E5000019840F20001C2F20001096844F6D35231
:101E6000C1F26202A1FB02218909484301384EF206
:101E70001401CEF2000108600C208DF803009DF8DB
:101E8000030002B07047000080B540F23810C2F283
:101E90000000006838B1FFE740F23810C2F20000DD
:101EA0000068804700E0FFE780BD00004EF68851E3
:101EB000CEF20001086840F470000860704700002E
:101EC00081B0ADF80200BDF9020000280ED4FFE792
:101ED000BDF9021001F01F02012090404A094EF2A4
:101EE0000011CEF2000141F82200FFE701B0704777
:101EF00080B582B040F20400C2F200000190FFF70A
:101F00006DFD01980330FFF769FD01980630FFF77A
:101F100065FD40F20D00C2F20000FFF725FE40F221
:101F20001000C2F20000FFF7E5FE02B080BD000025
:101F300080B58CB040F20D00C2F2000040F23211C8
:101F4000C2F200010A91FFF74FFE0A980078D8BB51
:101F5000FFE7FFE740F23210C2F20000007858BB02
:101F6000FFE740F20D00C2F2000040F23211C2F26F
:101F70000001FFF739FE00208DF82F00FFE79DF8E4
:101F80002F00C72817DCFFE700208DF82E00FFE7A1
:101F90009DF82E00632807DCFFE7FFE79DF82E0081
:101FA00001308DF82E00F3E7FFE79DF82F00013098
:101FB0008DF82F00E3E7CDE740F23411C2F20001C3
:101FC000087801300870FFE740F23410C2F20000D8
:101FD0000078012843D1FFE740F23C10C2F2000034
:101FE0000078D8B9FFE740F20400C2F2000009907F
:101FF000FFF778FD09980330FFF732FD09980630A6
:10200000FFF72EFD4FF47A70FFF71AFF40F23C11F4
:10201000C2F2000108780130087000E0FFE740F2EA
:102020003D10C2F200000078012816D1FFE740F20F
:102030003D11C2F200010020087040F20400C2F21B
:1020400000000890FFF70CFD08980330FFF708FD2B
:1020500008980630FFF704FD00E0FFE718E140F2C2
:102060003410C2F200000078022843D1FFE740F2AA
:102070003110C2F200000078D8B9FFE740F2040046
:10208000C2F200000790FFF7EBFC07980330FFF760
:1020900029FD07980630FFF7E3FC4FF47A70FFF74D
:1020A000CFFE40F23111C2F2000108780130087011
:1020B00000E0FFE740F23D10C2F200000078012886
:1020C00016D1FFE740F23D11C2F200010020087076
:1020D00040F20400C2F200000690FFF7C1FC06982F
:1020E0000330FFF7BDFC06980630FFF7B9FC00E0AF
:1020F000FFE7CCE040F23410C2F200000078032881
:1021000043D1FFE740F23310C2F200000078D8B9A3
:10211000FFE740F20400C2F200000590FFF7A0FCC8
:1021200005980330FFF79CFC05980630FFF7DAFCB2
:102130004FF47A70FFF784FE40F23311C2F20001CF
:1021400008780130087000E0FFE740F23D10C2F26D
:1021500000000078012816D1FFE740F23D11C2F2DD
:1021600000010020087040F20400C2F20000049058
:10217000FFF776FC04980330FFF772FC04980630F2
:10218000FFF76EFC00E0FFE780E040F23410C2F29F
:1021900000000078042843D1FFE740F23010C2F27B
:1021A00000000078D8B9FFE740F20400C2F2000056
:1021B0000390FFF797FC03980330FFF793FC039815
:1021C0000630FFF78FFC4FF47A70FFF739FE40F2CC
:1021D0003011C2F2000108780130087000E0FFE71A
:1021E00040F23D10C2F200000078012816D1FFE74E
:1021F00040F23D11C2F200010020087040F20400DC
:10220000C2F200000290FFF72BFC02980330FFF7A8
:1022100027FC02980630FFF723FC00E0FFE734E0DC
:1022200040F23410C2F20000007805282BD1FFE7FD
:1022300040F23C11C2F200010020087040F233115C
:10224000C2F20001087040F23011C2F200010870C1
:1022500040F23111C2F20001087040F23411C2F2B2
:1022600000010120087040F20400C2F20000019059
:10227000FFF7F6FB01980330FFF7F2FB01980630F9
:10228000FFF7EEFB00E0FFE7FFE7FFE7FFE7FFE711
:102290000CB080BD80B582B000200190FFF728FE11
:1022A000FFE7FFF745FEFCE740F23D11C2F20001F7
:1022B000012008707047F1EE100A4FF6FF71C0F26E
:1022C000C03120EA010040F04070E1EE100A704792
:1022D000F02200000000002018000000A80200000A
:1022E000082300001800002028030000C40200009A
:1022F00080F0FA0205010005020005030005040054
:0823000000000000A92200000A
:040000050000026D88
:00000001FF
