S01900006C65645F73657175616E63655F76332E302E73726563BC
S11300000C944A000C946E050C9495050C94BC0554
S11300100C9467000C9467000C9467000C946700C0
S11300200C9467000C9467000C94C4070C94660746
S11300300C9467000C9467000C9467000C946700A0
S11300400C9467000C9467000C9467000C94670090
S11300500C9467000C9467000C9467000C94670080
S11300600C9467000C9467000C9467000C94670070
S11300700C946700300635063B06410646064C06DE
S113008051065706BF06C406CA06D106D706DD06C2
S1130090E406EA0611241FBECFEFD4E0DEBFCDBFD5
S11300A011E0A0E0B1E0E6EEFFE002C005900D92A1
S11300B0AE32B107D9F721E0AEE2B1E001C01D9242
S11300C0A634B207E1F70E94DF030C94F1070C9405
S11300D00000809114018F5F80931401863019F41D
S11300E081E0809314010895109215010895809180
S11300F02E018F5F80932E01893011F410922E010E
S113010008958F929F92AF92BF92CF92DF92EF9217
S1130110FF926B017C0149015A0180912E018130CB
S1130120D9F580912F01811114C09091150191305E
S113013081F481E080932F0182E191E00E944903E0
S1130140C701B6010E94FC0680E091E00E94AF0660
S1130150F3C190911501911114C0813091F48093F1
S1130160150182E080932F0182E191E00E947303E4
S1130170C501B4010E94FC0680E091E00E94AF0634
S1130180DBC19111D9C1823009F0D6C181E08093DD
S1130190150110922F01D0C1823009F043C0809123
S11301A02F01811118C0909115019130A1F481E0C3
S11301B080932F0182E191E00E94490381E191E063
S11301C00E94490380E091E00E94AF06C701B60196
S11301D00E94FC06B1C190911501911118C08130A3
S11301E0B1F48093150182E080932F0182E191E0C4
S11301F00E94730381E191E00E94730380E091E027
S11302000E94AF06C501B4010E94FC0695C191117C
S113021093C1823009F090C181E08093150110925E
S11302202F018AC1833009F04BC080912F018111C5
S11302301CC0909115019130C1F481E080932F018D
S113024082E191E00E94490381E191E00E94490327
S113025080E191E00E94490380E091E00E94AF06B2
S1130260C701B6010E94FC0667C190911501911166
S11302701CC08130D1F48093150182E080932F015A
S113028082E191E00E94730381E191E00E94730393
S113029080E191E00E94730380E091E00E94AF0648
S11302A0C501B4010E94FC0647C1911145C18230C9
S11302B009F042C181E08093150110922F013CC1E5
S11302C0843009F053C080912F01811120C0909196
S11302D015019130E1F481E080932F0182E191E0F6
S11302E00E94490381E191E00E94490380E191E089
S11302F00E9449038FE091E00E94490380E091E06D
S11303000E94AF06C701B6010E94FC0615C1909178
S11303101501911120C08130F1F48093150182E020
S113032080932F0182E191E00E94730381E191E0C7
S11303300E94730380E191E00E9473038FE091E0D7
S11303400E94730380E091E00E94AF06C501B401EE
S11303500E94FC06F1C09111EFC0823009F0ECC09C
S113036081E08093150110922F01E6C0853009F0D9
S11303704FC080912F01811120C0909115019130BF
S1130380E1F481E080932F0182E191E00E94730304
S113039081E191E00E94490380E191E00E944903D8
S11303A08FE091E00E94490380E091E00E94AF0653
S11303B0C701B6010E94FC06BFC0909115019111BE
S11303C01CC08130D1F48093150182E080932F0109
S11303D081E191E00E94730380E191E00E94730344
S11303E08FE091E00E94730380E091E00E94AF06E9
S11303F0C501B4010E94FC069FC091119DC08230CA
S113040009F09AC081E08093150110922F0194C0E5
S1130410863009F043C080912F01811118C090915A
S113042015019130A1F481E080932F0180E191E0E6
S11304300E9449038FE091E00E94490380E091E02B
S11304400E94AF06C701B6010E94FC0675C09091D8
S11304501501911118C08130B1F48093150182E027
S113046080932F0180E191E00E9473038FE091E07B
S11304700E94730380E091E00E94AF06C501B401BD
S11304800E94FC0659C0911157C0823009F054C033
S113049081E08093150110922F014EC08730D1F571
S11304A080912F01811114C090911501913081F434
S11304B081E080932F018FE091E00E94490380E066
S11304C091E00E94AF06C701B6010E94FC0634C049
S11304D090911501911114C0813091F4809315010C
S11304E082E080932F018FE091E00E94730380E00B
S11304F091E00E94AF06C501B4010E94FC061CC035
S113050091111AC08230C1F481E0809315011092D8
S11305102F0112C0883081F482E191E00E947303BC
S113052081E191E00E94730380E191E00E947303F2
S11305308FE091E00E947303FF90EF90DF90CF90E3
S1130540BF90AF909F908F90089582E191E00E94B8
S1130550200381E191E00E94200380E191E00E9468
S113056020038FE091E00E94200388E091E00E9444
S1130570BB0488E091E00E9451058CE091E00E9468
S11305809D0380E091E00E94FB0563E171E08CE053
S113059091E00E94A40380911301882339F00CC0D8
S11305A063E171E08CE091E00E94A4038091130167
S11305B08823B1F30E94770080911401813059F4AB
S11305C024E833E040E050E064E670E080E090E04E
S11305D00E948100DACF823059F420E233E040E017
S11305E050E068EC70E080E090E00E948100CDCFA4
S11305F0833059F42CEB32E040E050E06CE271E0DF
S113060080E090E00E948100C0CF843059F424EF50
S113061031E040E050E064EF71E080E090E00E945F
S11306208100B3CF853009F0B0CF28EC30E040E052
S113063050E060E273E080E090E00E948100A5CF8A
S1130640CF93DF931F92CDB7DEB70097E9F0FC019B
S11306502081922F97708981887F892B922F96957C
S1130660969596959770990F990F990F877C892B7A
S113067026FB222720F9806420FB87F98983CE0199
S113068001960E948A0401C080E00F90DF91CF910F
S11306900895CF93DF931F92CDB7DEB70097F1F0A3
S11306A0FC012081922F97708981887F892B922F5A
S11306B09695969596959770990F990F990F877CB3
S11306C0892B26FB222720F9806420FB87F9898364
S11306D061E0CE0101960E94250401C080E00F90E4
S11306E0DF91CF910895CF93DF931F92CDB7DEB7FB
S11306F00097F1F0FC012081922F97708981887F07
S1130700892B922F9695969596959770990F990F98
S1130710990F877C892B26FB222720F9806420FBF4
S113072087F9898360E0CE0101960E94250401C007
S113073080E00F90DF91CF910895009719F00E9407
S1130740E403089580E00895EF92FF920F931F93BE
S1130750CF93DF931F92CDB7DEB7009729F16115D0
S1130760710521F17B018C011982BE016F5F7F4FFE
S11307700E946504F8018281811109C08981813058
S113078019F4F70180830EC0F70110820BC0813089
S113079049F48981813019F4F701108203C081E0A2
S11307A0F701808381E003C080E001C080E00F9006
S11307B0DF91CF911F910F91FF90EF9008950E94C8
S11307C0A50280E090E00895FC01892BD1F12081FD
S11307D02695269526952770808186FB992790F982
S11307E086FF18C0913079F5E82FE770F0E0EE0F3E
S11307F0FF1FEA5DFE4F0190F081E02D308181E022
S113080090E002C0880F991F2A95E2F7832B80831A
S113081081E00895E081E770F0E0EE0FFF1FEA5DEC
S1130820FE4F0190F081E02D308181E090E002C024
S1130830880F991F2A95E2F780958323808381E0AE
S1130840089580E0089580E008950097D1F1DC01D7
S11308502C912695269526952770662319F06130EC
S1130860C9F031C0DC01EC91E770F0E0EE0FFF1F3E
S1130870E25EFE4F0190F081E02D308181E090E056
S113088002C0880F991F2A95E2F7809583238083FD
S113089081E00895DC01EC91E770F0E0EE0FFF1FBA
S11308A0E25EFE4F0190F081E02D308181E090E026
S11308B002C0880F991F2A95E2F7832B808381E079
S11308C0089580E0089580E008950097F9F0611597
S11308D07105F1F0DC012C9126952695269527705B
S11308E0EC91E770F0E0EE0FFF1FEA5EFE4F01901F
S11308F0F081E02D808190E002C0959587952A953E
S1130900E2F78170FB01808381E0089580E008951F
S113091080E00895CF93DF93009759F0EC010E9493
S1130920E403688167FB662760F9CE010E94250411
S113093001C080E0DF91CF910895009731F090934A
S113094035018093340181E0089580E00895009793
S113095031F0909333018093320181E0089580E077
S11309600895009731F0909331018093300181E034
S1130970089580E00895009709F489C0FC018281FC
S11309808130C9F120F0823009F468C082C08381CB
S113099081110AC00E94E3058BB780648BBF85B7C1
S11309A08C7F85BF81E00895813059F40E94E3056E
S11309B08BB780648BBF85B78D7F816085BF81E0F5
S11309C00895823059F40E94E3058BB780648BBF8D
S11309D085B782608E7F85BF81E00895833009F0FA
S11309E05AC00E94E3058BB780648BBF85B78360D0
S11309F085BF81E00895838181110AC00E94E305C7
S1130A008BB780688BBF85B7837F85BF81E00895EE
S1130A10813059F40E94E3058BB780688BBF85B79A
S1130A20877F846085BF81E00895823059F40E94F5
S1130A30E3058BB780688BBF85B788608B7F85BFE4
S1130A4081E00895833049F50E94E3058BB78068FF
S1130A508BBF85B78C6085BF81E008958381823028
S1130A6051F40E94E3058BB780628BBF84B78F7B00
S1130A7084BF81E00895833091F40E94E3058BB72D
S1130A8080628BBF84B7806484BF81E0089580E076
S1130A90089580E0089580E0089580E0089580E05E
S1130AA008950097B9F0FC018281813049F018F073
S1130AB0823059F011C0808191810E949D04089573
S1130AC0808191810E94A7040895808191810E9470
S1130AD0B104089580E0089580E008951F920F9274
S1130AE00FB60F9211242F933F934F935F936F93FD
S1130AF07F938F939F93AF93BF93EF93FF93E09173
S1130B003401F09135010995FF91EF91BF91AF91B7
S1130B109F918F917F916F915F914F913F912F9111
S1130B200F900FBE0F901F9018951F920F920FB643
S1130B300F9211242F933F934F935F936F937F935F
S1130B408F939F93AF93BF93EF93FF93E091320101
S1130B50F09133010995FF91EF91BF91AF919F916E
S1130B608F917F916F915F914F913F912F910F9052
S1130B700FBE0F901F9018951F920F920FB60F92F1
S1130B8011242F933F934F935F936F937F938F938E
S1130B909F93AF93BF93EF93FF93E0913001F09154
S1130BA031010995FF91EF91BF91AF919F918F9181
S1130BB07F916F915F914F913F912F910F900FBE55
S1130BC00F901F9018958FB780688FBF0895009776
S1130BD031F090934101809340018BE008958CE0C3
S1130BE00895009731F090933F0180933E018DE08A
S1130BF008958EE00895CF93DF93DC01892B09F4E7
S1130C00AAC08C91813089F028F0823041F0833081
S1130C1091F016C083B7877B83BF83E012C083B78C
S1130C20877F806483BF83E00CC083B788608F7B39
S1130C3083BF83E006C083B7886483BF83E001C0B9
S1130C4084E08330D1F51296EC9112974E2F50E048
S1130C504830510588F5FA01E65CFF4F0C94EB0728
S1130C6083B78F7C83BF85E028C083B78F7D806185
S1130C7083BF85E022C083B780628F7E83BF85E017
S1130C801CC083B7806383BF85E017C083B78062CD
S1130C908F7E83BF85E011C083B7806383BF85E007
S1130CA00CC083B780628F7E83BF85E006C083B7A4
S1130CB0806383BF85E001C086E0ED01853079F56E
S1130CC08B81882319F08130A9F024C0888188237E
S1130CD019F0813041F020C00E94E30589B781609A
S1130CE089BF87E01CC00E94E30589B7826089BF81
S1130CF087E015C08881882319F0813031F00EC057
S1130D0089B78E7F89BF87E00AC089B78D7F89BF85
S1130D1087E005C088E003C088E001C088E0873030
S1130D2089F48881882319F0813031F00AC08C81DC
S1130D309D810E94E70506C08E819F810E94F10576
S1130D4001C08FE08B3011F08D3031F483B7887F90
S1130D5083BF80E001C082E0DF91CF9108950097C6
S1130D6009F441C0DC011196EC918E2F90E088309B
S1130D709105A8F5FC01EE5BFF4F0C94EB0783B7DC
S1130D80887F83BF89E02CC083B7897F816083BF5C
S1130D9089E026C083B78B7F82608E7F83BF89E022
S1130DA01FC083B78B7F836083BF89E019C083B77B
S1130DB084608C7F83BF89E013C083B784608D7F98
S1130DC0816083BF89E00CC083B786608E7F83BF58
S1130DD089E006C083B7876083BF89E001C08AE0E9
S1130DE0893021F402C082E0089580E0089583B739
S1130DF0887F83BF80E008950F931F93DC01CB01AC
S1130E00880F991FAA1FBB1F880F991FAA1FBB1FFA
S1130E10880F991FAA1FBB1F8C019D01000F111F72
S1130E20221F331F000F111F221F331F800F911F1A
S1130E30A21FB31FAC01BD01440F551F661F771FCE
S1130E40440F551F661F771F840F951FA61FB71FDA
S1130E50AC01BD01440F551F661F771F440F551F7A
S1130E60661F771F840F951FA61FB71F492F5A2F80
S1130E706B2F7727409342015093430160934401C1
S1130E80709345019927AA27BB2740E051E060E011
S1130E9070E08A019B01081B190B2A0B3B0B02BF54
S1130EA08091420190914301A0914401B091450188
S1130EB00196A11DB11D8093420190934301A0931B
S1130EC04401B09345011F910F9108951F920F9211
S1130ED00FB60F9211242F933F934F935F936F9309
S1130EE07F938F939F93AF93BF93EF93FF938091DF
S1130EF0360190913701A0913801B09139014091A8
S1130F00420150914301609144017091450184175D
S1130F109507A607B707E1F4E0914001F09141017C
S1130F2009951092360110923701109238011092EF
S1130F30390181E090E0A0E0B0E080933A01909321
S1130F403B01A0933C01B0933D010E94F7060BC006
S1130F500196A11DB11D8093360190933701A09392
S1130F603801B0933901FF91EF91BF91AF919F91F7
S1130F708F917F916F915F914F913F912F910F903E
S1130F800FBE0F901F9018951F920F920FB60F92DD
S1130F9011242F933F934F935F936F937F938F937A
S1130FA09F93AF93BF93EF93FF93E0913E01F09132
S1130FB03F010995FF91EF91BF91AF919F918F915F
S1130FC07F916F915F914F913F912F910F900FBE41
S1130FD00F901F901895EE0FFF1F0590F491E02DD0
S1090FE00994F894FFCF10
S1130FE600020000740000006900020322010139B6
S1130FF631292101010139003600330030003B005C
S11110063800350032003A0037003400310063
S9030000FC
